:020000040800F2
:1000000000500020CD330008B1320008B3320008A0
:10001000B5320008B7320008B9320008000000000D
:10002000000000000000000000000000BB320008DB
:10003000BD32000800000000BF320008C1320008D5
:10004000153400081534000815340008153400086C
:10005000153400081534000815340008153400085C
:10006000C5320008CB3200081534000815340008EA
:10007000153400081534000815340008153400083C
:10008000153400081534000815340008153400082C
:10009000153400081534000815340008153400081C
:1000A000153400081534000815340008D132000852
:1000B00015330008213300084533000815340008C3
:1000C00015340008153400081534000815340008EC
:1000D00015340008153400081534000815340008DC
:1000E000153400081534000815340008000000001D
:1000F0000000000000000000000000000000000000
:0C01000000000000000000005FF808F1A3
:1001100010B5054C237833B9044B13B10448AFF341
:1001200000800123237010BD10000020000000009B
:100130008834000808B5034B1BB103490348AFF3EB
:10014000008008BD00000000140000208834000872
:1001500038B50E4B054618784FF47A73B3FBF0F3BD
:100160000B4A1068B0FBF3F000F084FB044658B96A
:100170000F2D09D8024629464FF0FF3000F038FB1A
:10018000044B20461D6038BD012038BD0000002012
:100190000C00002004000020074A08B51368032063
:1001A00043F01003136000F011FB0020FFF7D0FFB5
:1001B00002F030FF002008BD00200240034A044B3B
:1001C00011681B780B441360704700BF5C0000206F
:1001D00000000020014B1868704700BF5C00002041
:1001E00038B50446FFF7F6FF0546631C1EBF044BF7
:1001F0001B78E418FFF7EEFF401B8442FAD838BDA5
:1002000000000020F7B5002604460D460196FFF7D2
:10021000E1FF236807469A68D20508D50120A36A42
:1002200084F8246043F02003A36203B0F0BD5A6851
:10023000D60503D4DB6A13F4700F3BD03A4B02208F
:100240001E6800F05BFF2368384A1969B6FBF0F0BE
:100250001142374A4FD1DE6836490E424BD11969F7
:10026000114259D1DA68344B1A4214BF292314239E
:1002700000FB03F6019B9E4220D96B1C05D05DB1AB
:10028000FFF7A8FFC01B854206D3019B01330193F2
:10029000F0E7681C0FD045B9A36A032043F00403BC
:1002A000A362002384F82430BFE7FFF793FFC01B4D
:1002B0008542F1D3226813689907EAD56FF01203DB
:1002C00022681360A36A43F40073A362936803F483
:1002D0006023B3F5602F25D1237B1BBBA36A23F4D6
:1002E0008073A362A06A10F480501BD1A36A43F00C
:1002F0000103A36299E71969114203D1D9680E4A33
:1003000011420BD019690D4A114209D1DB68134221
:1003100014BFFC235423ABE72923A9E75423A7E701
:10032000FC23A5E7002080E70C000020244992244C
:1003300092244912244992009224490049922400AF
:100340000368D86C70470000002373B5019390F8E0
:100350002430012B74D001234D6880F82430062D01
:1003600002684FEA85030C6825D82B441F25566B7D
:10037000053B9D4026EA050504FA03F32B4353632E
:10038000092C4FEA44038D682FD907262344D168EE
:100390001E3B9E4021EA060105FA03F30B43D3609E
:1003A000A4F11003012B2BD90023002280F8242074
:1003B000184602B070BD0C2D0BD82B441F25166BB0
:1003C000233B9D4026EA050504FA03F32B43136300
:1003D000D6E72B441F25D66A413B9D4026EA0505FA
:1003E00004FA03F32B43D362CAE7072611692344B7
:1003F0009E4021EA060105FA03F30B431361CFE7A0
:10040000104B9A4216D193681B02CDD49368102CDE
:1004100043F400039360C7D10B4B0C4A1B68B3FB3A
:10042000F2F20A2353430193019B002BBCD0019BA2
:10043000013BF8E7836A43F0200383620123B4E7BA
:100440000223B5E7002401400C00002040420F00C9
:10045000002373B50193036804469A68D20702D556
:10046000002002B070BD9A6842F001029A60124BFF
:10047000124A1B68B3FBF2F30193019BC3B9FFF768
:10048000A9FE064623689D6815F00105E8D1FFF72F
:10049000A1FE801B0228F5D9A36A84F8245043F0FA
:1004A0001003A362E36A012043F00103E362D8E78B
:1004B000019B013BE0E700BF0C00002040420F0021
:1004C00090F8243010B5012B044654D0012380F855
:1004D0002430FFF7BDFF002849D1A36A274A23F43F
:1004E000407323F0010343F48073A36223689342B3
:1004F00004D123494A6812F4702F2ED1A26A22F443
:100500008012A2625A68520541BFA26A22F4405288
:1005100042F48052A262A26A12F480521CBFE26AC4
:1005200022F00602E262002284F824206FF0020228
:100530001A609A6802F46022B2F5602F13D10F4A54
:10054000934205D1A2F58062526812F4702F0AD14D
:100550009A6842F4A0029A6010BDA26A42F4801226
:10056000A2624A68CFE79A6842F48012F3E7002358
:1005700084F8243010BD022010BD00BF00280140C7
:100580000024014038B5036804469A68D20701D4B4
:10059000002038BD9A6822F001029A60FFF71AFE27
:1005A000054623689B68DB07F2D5FFF713FE401B67
:1005B0000228F6D9A36A012043F01003A362E36A7C
:1005C00043F00103E36238BD70B50446002871D0E2
:1005D000836A23B9C36280F8243002F03DFD2046CF
:1005E000FFF7D0FFA36A13F0100FA36A64D10028AD
:1005F00062D1E16923F48853626823F0020343F077
:1006000002030A43A168A362237BB1F5807F42EA1B
:10061000430238D0012914BF06464FF48076257D69
:10062000012D07D1002B30D1A369013B46EA4335A8
:1006300045F400662368B1F5807F5D6825F469455F
:1006400045EA06055D609E681D4D05EA060545EA1A
:1006500002059D6001D0012920D1216901390905D8
:10066000DD6A25F470052943D9629968154B0B4062
:100670009A4215D10023E362A36A23F0030343F0F7
:100680000103A36270BD0E46C9E7A36A43F02003CD
:10069000A362E36A43F00103E362CBE70021DFE7F3
:1006A000A36A23F0120343F01003A362E36A43F04A
:1006B0000103E362012070BD43F01003A362F9E778
:1006C000FDF7E1FFFE0E1FFF90F8243010B5012B5F
:1006D000044611D0012380F82430FFF753FF38B9C6
:1006E000A36A23F4885323F0010343F00103A362B8
:1006F000002384F8243010BD022010BD002373B500
:10070000019390F824300446012B5AD0012380F83D
:100710002430FFF737FF0546002832D1A36A0220B4
:1007200023F4885323F0020343F00203A362264B11
:100730001E6800F0E3FCB6FBF0F040000190019B66
:100740001BBB2046FFF784FE2268936843F0080332
:100750009360FFF73FFD064623689A68120718D496
:100760009A6842F004029A60FFF734FD0646236857
:100770009B685B071FD4A36A23F0030343F00103C4
:10078000A362002384F8243012E0019B013B019313
:10079000D5E7FFF71FFD801B0A28DDD9A36A0125D5
:1007A00023F0120343F01003A362002384F82430E3
:1007B000284602B070BDFFF70DFD801B0A28D6D970
:1007C000ECE70225F4E700BF0C000020074A000216
:1007D000D36800F4E06023F4E0631B041B0C43F0D7
:1007E000BF6343F400330343D360704700ED00E080
:1007F000174B30B5DC68C4F30224C4F10703251D90
:10080000042B28BF0423062D4FF0010598BF0024B8
:1008100005FA03F303F1FF3388BF033C1940A140FD
:1008200005FA04F4013C2240002842EA01024FEAA2
:100830000212A9BF00F16040064BD2B200F5614040
:10084000BBBF00F00F00D2B280F800231A5430BDB5
:1008500000ED00E014ED00E0002808DB0123420970
:1008600000F01F0003FA00F0014B43F8220070472C
:1008700000E100E00138B0F1807F0AD2F021064BA0
:10088000064A586082F823100020072298601A60F8
:1008900070470120704700BF10E000E000ED00E06D
:1008A0002DE9F74F00242646664BDFF8A8E1DFF874
:1008B000A8C10A6832FA06F502D103B0BDE8F08F8C
:1008C0004FF0010808FA06F802EA080290457FD1C5
:1008D0004D68122D00F0AA8000F28380022D00F0F6
:1008E000A28077D8002D00F08980012D00F099803A
:1008F0004FF00F09FF2A93BF824606F18045083D5D
:10090000D0F800B092BFB500D0F804B0AD0009FA3D
:1009100005F82BEA080804FA05F588BF00F1040A77
:1009200048EA0505CAF80050D1F804A01AF0805F23
:100930004ED0454D444FAD6926F0030845F0010502
:10094000BD61BD6908F1804805F00105019508F514
:10095000803806F0030B019D4FEA8B0BD8F8085046
:1009600009FA0BF925EA0909384DA84263D005F5C3
:100970008065A84261D005F58065A8425FD005F585
:100980008065A8420CBF0325042505FA0BF545EA4E
:100990000905C8F808501D681AF4803F14BF1543B4
:1009A00095431D605D681AF4003F14BF15439543DD
:1009B0005D609D681AF4801F14BF154395439D60C8
:1009C000DD681AF4001F14BF2A4325EA0202DA6028
:1009D00001366EE7032D22D0112D89D1CC68043465
:1009E00086E71B4FBD4209D012D8DFF870904D4505
:1009F00004D009F580394D457FF47AAF8C68C4B1D5
:100A0000012C0CBFC0F81080C0F8148008246FE7D8
:100A10007545F3D06545F1D0DFF84490EBE700244D
:100A200066E7CC6864E7CC68083461E7CC680C34CE
:100A30005EE704245CE70025A7E70125A5E702257A
:100A4000A3E700BF0004014000100240000801407D
:100A500000002110000031100000321000001110C1
:100A6000000022108368194214BF01200020704743
:100A70000AB1016170470904FBE7C3680B4214BF68
:100A8000416101617047000008B5044B596901429A
:100A900002D0586101F050FF08BD00BF00040140C2
:100AA0002DE9F341054608B901203CE00368DB0766
:100AB00010D42B689F075DD42B68190700F1948030
:100AC0002B685A0700F1BE80E869002840F02C81AD
:100AD000002028E08F4C636803F00C03042B07D040
:100AE000636803F00C03082B09D16368DE0306D5A5
:100AF00023689C03DDD56B68002BDAD1D4E76B68E3
:100B0000B3F5803F12D1236843F480332360FFF7AD
:100B100061FB064623689803CBD4FFF75BFB801B81
:100B20006428F7D9032002B0BDE8F0819BB923689F
:100B300023F480332360236823F480232360FFF7AA
:100B400049FB064623689903B3D5FFF743FB801B97
:100B50006428F7D9E6E7B3F5A02F236803D143F45F
:100B600080232360CFE723F480332360236823F4BA
:100B70008023CBE7674C636813F00C0F07D06368E2
:100B800003F00C03082B10D16368DA030DD423683B
:100B90009B0702D52B69012B86D123686A6923F054
:100BA000F80343EAC203236086E72A695A4B6AB115
:100BB00001221A60FFF70EFB064623689F07ECD45C
:100BC000FFF708FB801B0228F7D9ABE71A60FFF795
:100BD00001FB0646236898077FF56EAFFFF7FAFA28
:100BE000801B0228F6D99DE7AA694A4C4B4BDAB123
:100BF00001221A60FFF7EEFA0646636A9B070DD5DD
:100C00004FF4FA52464B1B68B3FBF2F3019300BF5B
:100C1000019B5A1E0192002BF9D151E7FFF7DAFA36
:100C2000801B0228E9D97DE71A60FFF7D3FA064650
:100C3000636A9F077FF544AFFFF7CCFA801B022859
:100C4000F6D96FE7334CE369D80024D40127E36970
:100C500043F08053E361E36903F080530093009B0A
:100C6000304E3368D90518D5EB68012B26D1236A9D
:100C700043F001032362FFF7ADFA41F28836804664
:100C8000236A9B073FD5002F3FF41EAFE36923F093
:100C90008053E36118E70027E2E7336843F4807389
:100CA0003360FFF797FA80463368DA05DCD4FFF744
:100CB00091FAA0EB08006428F6D933E7ABB9236AB0
:100CC00041F2883823F001032362236A23F00403EE
:100CD0002362FFF77FFA0646236A9807D3D5FFF70A
:100CE00079FA801B4045F7D91CE7052B236A03D10D
:100CF00043F004032362BAE723F001032362236A6B
:100D000023F00403B6E7FFF765FAA0EB0800B04252
:100D1000B6D907E700100240000042428004424278
:100D20000C000020007000402A4B5A681C4602F05C
:100D30000C02082A3DD00023274E022833602BD115
:100D4000FFF748FA0746236899011FD42B6AB3F5C9
:100D5000803F05D16268A96822F400320A436260CC
:100D6000696A62680B4322F47412134363600123BF
:100D70003360FFF72FFA054623689A013FF5A8AEC6
:100D8000FFF728FA401B0228F6D9CBE6FFF722FA34
:100D9000C01B0228D7D9C5E6FFF71CFA0546236811
:100DA0009B017FF595AEFFF715FA401B0228F6D997
:100DB000B8E601283FF4B7AE58682B6A00F48032D9
:100DC0009A427FF471AE6B6A00F47010C01A18BFBB
:100DD0000120A8E6001002406000424230B587B012
:100DE0000D461022002102A802F045FB02230393C6
:100DF000032305934FF480730A4C0293A36902A95D
:100E000043F00403A361A369074803F004030193BB
:100E1000019BFFF745FD616821F0E06129436160B6
:100E200007B030BD001002400008014030B51B4B38
:100E300087B002AC03F110052246186859680833E0
:100E400003C2AB421446F7D101238DF804300223CC
:100E500013498DF805304B6803F00C02042A1BD0AF
:100E6000082A02D00F4807B030BDC3F3834206A85A
:100E70000244DB0312F8102C0BD54B680A48C3F36D
:100E80004043504306AA134413F8143CB0FBF3F05C
:100E9000E9E706485043E6E70348E4E7A0340008E2
:100EA0000010024000127A000024F40000093D0006
:100EB0002DE9F0410D46044610B90120BDE8F0814E
:100EC000454A136803F007038B4229D321688E0734
:100ED00031D4CA0744D4404A136803F007039D4243
:100EE00067D322683D4D12F0040F6ED1130706D56B
:100EF0006B68226923F4605343EAC2036B60FFF717
:100F000095FF6B68364AC3F30313D35CD840354B67
:100F10001860354B1868FFF71BF90020BDE8F08119
:100F2000136823F007030B431360136803F00703F0
:100F30009942C2D1CAE7294B11F0040F1EBF5A686B
:100F400042F4E0625A60080742BF5A6842F46052B5
:100F50005A605A68A06822F0F00202435A60B8E76B
:100F600062681E4E012A33681BD113F4003FA4D0DF
:100F7000736841F2883823F0030313437360FFF76B
:100F800029F907467368626803F00C03B3EB820F1C
:100F9000A1D0FFF71FF9C01B4045F3D90320BDE8DE
:100FA000F081022A02D113F0007FE0E713F0020F74
:100FB000DDE7136823F007032B431360136803F086
:100FC00007039D427FF479AF8BE76B68E16823F4F8
:100FD000E0630B436B6089E7002002400010024091
:100FE000D23400080C00002004000020044B054A05
:100FF0005B68C3F3C223D35C034A1068D8407047D0
:1010000000100240E23400080C00002003682DE9C3
:10101000F341D907054620D5354CE369DA0032D4CF
:101020000127E36943F08053E361E36903F08053F0
:101030000193019B2F4E3368DB0526D5236A13F4F9
:10104000407336D1236A6A6823F4407313432362E2
:101050001FB1E36923F08053E3612868830706D555
:10106000234AA968536823F440430B43536010F0AC
:1010700010001BD01E4AE9685368002023F4800347
:101080000B43536012E00027D4E7336843F48073C6
:101090003360FFF79FF880463368D805CED4FFF75A
:1010A00099F8A0EB08006428F6D9032002B0BDE847
:1010B000F0816A6802F440729342C3D001200E4A64
:1010C000236A1060002023F4407110602162D90768
:1010D000B8D5FFF77FF841F288380646236A9A07A9
:1010E000B0D4FFF777F8801B4045F7D9DDE700BFA4
:1010F00000100240007000404004424270B50446B7
:10110000344B86B002AD03F110062A4618685968C0
:10111000083303C2B3421546F7D101238DF80430DA
:1011200002239C428DF8053046D0102C17D0012C9C
:101130004ED140F20231284A136A1940B1F5817F3D
:1011400043D003F44073B3F5007F2DD149F64040FE
:10115000536A13F0020F08BF002006B070BD1E4B8B
:101160005968186810F08070F7D0C1F3834206A860
:10117000024412F8100CCA0341BF5A6806A9C2F310
:101180004042521844BF12F8141C144A5B684CBF0A
:10119000B2FBF1F2124A5B0202FB00F0DDD4032342
:1011A0004000B0FBF3F0D8E7B3F5407F10D11368EF
:1011B0000C4813F4003FCEE7FFF718FF064B5B68BF
:1011C000C3F3813301335B00EBE74FF40040C4E726
:1011D0000020C2E7B0340008001002400024F400F0
:1011E00000093D0048E80100F8B504460E461546E2
:1011F0001F4621688A6836EA020301D00020F8BD44
:101200006B1CF7D0FEF7E6FFC01B8542F1D82368C0
:101210005A6822F0E0025A606268B2F5827F0AD111
:10122000A268B2F5004F02D0B2F5806F03D11A6800
:1012300022F040021A60A26AB2F5005F07D11A6874
:1012400022F400521A601A6842F400521A60012314
:1012500084F851300023032084F85030F8BD38B5AD
:10126000134642680446B2F5827F16D18068B0F515
:10127000004F02D0B0F5806F0FD12268B0F5806FBB
:10128000156825F04005156007D10A460121204662
:10129000FFF7AAFF20B9002038BD0A468021F6E7F3
:1012A000636D032043F02003636538BD10B513461A
:1012B0000A4680210446FFF797FF20B10320636DA3
:1012C00043F02003636510BD10B50446002834D0F8
:1012D0000023836290F8513003F0FF021BB980F8BD
:1012E000502001F003FF0223226884F85130136874
:1012F000A06823F0400313606368A1690343E068BA
:1013000003432069034360690343E0690343206AA0
:101310000343A06A034301F40070090C034301F086
:10132000040113605160D369002023F40063D3618A
:101330000123606584F8513010BD012010BD2DE9F6
:10134000F3411E4690F850300446012B0D4690465E
:1013500000F09C80012380F85030FEF73BFF0746E9
:1013600094F85100C0B2012840F08E80002D5ED06C
:10137000B8F1000F5BD00323002084F85130A3683C
:101380006065A063A4F83680A087E087606420646D
:101390002068B3F5004F08BF0368256308BF43F416
:1013A0008043A4F8348008BF036003685B065EBF17
:1013B000036843F040030360E368B3F5006F6368BC
:1013C0003ED113B1B8F1010F07D135F8023BC3602C
:1013D0002563E38E013B9BB2E386E38E9BB2A3B908
:1013E0003A4631462046FFF761FF002849D1A368FD
:1013F00033B901932368DA6801929B680193019BDA
:10140000606D003018BF012011E0226893689807D2
:1014100005D5236B33F8021BD1602363D9E7FEF7B0
:10142000D9FEC01BB042D8D3711CD6D003200123F3
:1014300084F85130002384F8503002B0BDE8F081C8
:1014400013B1B8F1010F08D12B780373236B01336B
:101450002363E38E013B9BB2E386E38E9BB2002BBA
:10146000BED023689A68920703D5226B12781A734C
:10147000ECE7FEF7AFFEC01B8642EED8731CECD043
:10148000D4E720236365B2E70220D0E70220D4E747
:101490002DE9F7431E4690F850300446012B0D46C7
:1014A00091460A9F00F0E280012380F85030FEF759
:1014B00091FE94F851308046DBB2012B61680AD06E
:1014C000B1F5827F40F0D080A068002840F0CC8049
:1014D000042B40F0C980002D00F0C480B9F1000F4A
:1014E00000F0C080002E00F0BD8094F85130C4F8A8
:1014F0003890042B1CBF052384F85130002363650A
:10150000236463642368E687E6861A68A687500624
:1015100058BF1A68256358BF42F04002A68658BFDC
:101520001A60E268B2F5006F58D109B1012E07D1F7
:1015300035F8022BDA60E38E2563013B9BB2E3862C
:101540000125E38E9BB2ABB9E38F9BB293B94246C0
:1015500039462046FFF7AAFE002840F08180A368A4
:10156000002B32D123680190DA6801929B680193C5
:10157000019B2AE02268936899070DD5E38E9BB200
:1015800053B14DB10025236B33F8021BD1602363A7
:10159000E38E013B9BB2E3869368DB070CD5E38FB8
:1015A0009BB24BB10125D268A36B23F8022BA36336
:1015B000E38F013B9BB2E387FEF70CFEA0EB080034
:1015C0008742BED87E1CBCD00320012384F8513052
:1015D000002384F8503003B0BDE8F08309B1012E38
:1015E00008D12A781A73236B01332363E38E013BFE
:1015F0009BB2E3860125E38E9BB21BB9E38F9BB2BE
:10160000002BA4D02268936898070ED5E38E9BB276
:101610005BB155B10025236B1B781373236B01332A
:101620002363E38E013B9BB2E38622689368D9076C
:101630000DD5E38F9BB253B10125D268A36B1A700D
:10164000A36B0133A363E38F013B9BB2E387FEF7F8
:10165000C1FDA0EB08008742CDD87B1CCBD0B3E7FF
:10166000202363650120B0E70220AEE70220B2E745
:101670002DE9F3411D4643680446B3F5827F884651
:1016800017460CD1836853B9042380F851301346B0
:1016900000950A46FFF7FCFE02B0BDE8F08194F821
:1016A0005030012B79D0012384F85030FEF792FDA1
:1016B000064694F85100C0B201286CD1B8F1000F71
:1016C00057D0002F55D0042384F851300023636590
:1016D0002363E787A386E38623646364A368A787FD
:1016E000B3F5004F2368C4F8388002BF1A6822F4AB
:1016F00080421A601A6857065EBF1A6842F04002BC
:101700001A60E368F3B1E38F9BB2FBB123689A6878
:10171000D20735D5DA68A36B23F8022BA363E38FD6
:10172000013B9BB2E387EEE723689A68D00718D5A0
:101730001B7BA26B1370A36B0133A363E38F013B8D
:101740009BB2E387E38F9BB2002BEDD13246294653
:101750002046FFF784FDD8B9606D003018BF012026
:1017600007E0FEF737FD801B8542EBD8691CE9D006
:101770000320012384F85130002384F850308BE794
:10178000FEF728FD801B8542BDD86B1CBBD0EFE760
:1017900020236365E0E70220EBE702207CE70000FE
:1017A000036A70B523F001030362036A4468826927
:1017B0000D6822F073022A438D6823F002032B4345
:1017C0000A4DA8420BD1CD6823F008032B438E6944
:1017D0004D6924F44074354323F004032C434460E2
:1017E00082614A684263036270BD00BF002C014001
:1017F000036A70B523F480730362036A4468C269A4
:101800000D6822F073022A438D6823F4007343EAC3
:1018100005230B4DA8420DD1CD6823F4006343EAA4
:1018200005238E694D6924F44054354323F48063C5
:1018300044EA05144460C2614A68C263036270BD31
:10184000002C0140036A30B523F480530362036A1D
:101850004468C2690D6822F4E64242EA05228D68B6
:1018600023F4005343EA0533064DA84202BF4D69F5
:1018700024F4804444EA85144460C2614A680264E6
:10188000036230BD002C0140022380F83D30036824
:101890009A6802F00702062A1EBF1A6842F0010287
:1018A0001A60012380F83D30002070470368002053
:1018B000DA6842F00102DA609A6802F00702062A4A
:1018C0001EBF1A6842F001021A6070470368DA68A6
:1018D00022F00102DA6041F21112196A114208D1B4
:1018E00040F24442196A114202BF1A6822F0010212
:1018F0001A60002070477047704770477047704704
:10190000036810B51A69044691070ED5DA68920784
:101910000BD56FF002021A6101229B6902779B07C7
:1019200077D0FFF7EAFF0023237723681A6950076F
:1019300010D5DA6851070DD56FF004021A61022242
:101940009B69227713F4407F204668D0FFF7D5FFCC
:101950000023237723681A6912070FD5DA68100766
:101960000CD56FF008021A610422DB69227799070F
:1019700020465AD0FFF7C1FF0023237723681A6956
:10198000D20610D5DA68D0060DD56FF010021A61B4
:101990000822DB69227713F4407F20464BD0FFF703
:1019A000ACFF0023237723681A69D10708D5DA68CA
:1019B000D20705D56FF0010220461A61FFF79BFFA1
:1019C00023681A69100608D5DA68110605D56FF084
:1019D000800220461A6100F054FA23681A69520600
:1019E00008D5DA68500605D56FF0400220461A6126
:1019F000FFF785FF23681A69910622D5DA689206F7
:101A00001FD56FF020022046BDE810401A6100F09B
:101A100037BAFFF771FF2046FFF770FF83E7FFF744
:101A20006BFF2046FFF76AFF92E7FFF765FF20464E
:101A3000FFF764FFA0E7FFF75FFF2046FFF75EFFB9
:101A4000AFE710BD1A4A036890420AD0B0F1804F48
:101A500007D0A2F59432904203D002F58062904202
:101A600015D14A6823F070031343114A90420AD0FB
:101A7000B0F1804F07D0A2F59432904203D002F526
:101A80008062904203D1CA6823F4407313434A69C9
:101A900023F08003134303608B68C3620B68836287
:101AA000034B984204BF0B690363012343617047F2
:101AB000002C014010B50446A0B190F83D3003F071
:101AC000FF021BB980F83C2001F04AFB022320688A
:101AD00084F83D30211DFFF7B5FF0123002084F875
:101AE0003D3010BD012010BD10B50446A0B190F8E6
:101AF0003D3003F0FF021BB980F83C2001F07AFB77
:101B00000223206884F83D30211DFFF79BFF01234D
:101B1000002084F83D3010BD012010BD036A70B56F
:101B200023F010030362036A446882690D6822F49B
:101B3000E64242EA05228D6823F0200343EA0513BA
:101B40000B4DA8420DD1CD6823F0800343EA051365
:101B50008E694D6924F44064354323F0400344EA20
:101B60008504446082614A688263036270BD00BF7D
:101B7000002C014038B590F83C300446012B4FF062
:101B8000020018D0012384F83D0084F83C301D4643
:101B90000C2A0BD8DFE802F0070A0A0A100A0A0A20
:101BA000140A0A0A18002068FFF7FAFD002084F8DA
:101BB0003D5084F83C0038BD2068FFF7AFFFF5E7E3
:101BC0002068FFF715FEF1E72068FFF73BFEEDE721
:101BD00038B590F83C300446012B4FF0020025D078
:101BE000012384F83D0084F83C300C2A18D8DFE843
:101BF00002F0071717171E1717172F171717400090
:101C00002068FFF7CDFD236809699A6942F0080250
:101C10009A619A6922F004029A619A690A439A6168
:101C20000123002084F83D3084F83C0038BD206852
:101C3000FFF774FF236809699A6942F400629A61A8
:101C40009A6922F480629A619A6942EA0122E6E77F
:101C50002068FFF7CDFD23680969DA6942F00802C0
:101C6000DA61DA6922F00402DA61DA690A43DA61D8
:101C7000D6E72068FFF7E6FD23680969DA6942F4D0
:101C80000062DA61DA6922F48062DA61DA6942EAD2
:101C90000122ECE710B50124036A01F01F018C401A
:101CA00023EA04030362036A8A401A43026210BDF6
:101CB00010B5044601220068FFF7ECFF2368094ACB
:101CC0000020934202BF5A6C42F400425A649A6860
:101CD00002F00702062A1EBF1A6842F001021A60CB
:101CE00010BD00BF002C014010B504460C290DD8D2
:101CF000DFE801F0070C0C0C230C0C0C280C0C0C6E
:101D00002D000268D36843F00203D36020680122EB
:101D1000FFF7C0FF2368104A0020934202BF5A6CAD
:101D200042F400425A649A6802F00702062A1EBF73
:101D30001A6842F001021A6010BD0268D36843F0CD
:101D40000403E2E70268D36843F00803DDE70268B2
:101D5000D36843F01003D8E7002C0140FFF7C4BF5D
:101D600010B504460C290DD8DFE801F0070C0C0C67
:101D7000320C0C0C370C0C0C3C000268D36823F0BE
:101D80000203D36000222068FFF784FF2368184A0B
:101D900093420DD141F21112196A114208D140F259
:101DA0004442196A114202BF5A6C22F400425A643A
:101DB00041F21112196A114208D140F24442196AE3
:101DC000114202BF1A6822F001021A60002010BD01
:101DD0000268D36823F00403D3E70268D36823F0D2
:101DE0000803CEE70268D36823F01003C9E700BFF9
:101DF000002C0140FFF7B4BF90F83C3030B5012B08
:101E00004FF0020314D0046880F83D306268A36884
:101E10000D68496822F0700223F080030B432A43C7
:101E20006260A360012380F83D30002380F83C30DD
:101E3000184630BD90F83C30012B1FD0CB688A6823
:101E400023F4407313434A6823F4806313430A68FE
:101E500023F4006313430A6923F4805313434A694C
:101E600023F400531343CA6923F4804313430268E5
:101E70005364002380F83C301846704702207047B6
:101E800070477047034B044A5A6002F188325A6027
:101E9000704700BF0020024023016745024A1369D2
:101EA00043F080031361704700200240024BD86862
:101EB000C04300F0010070470020024008B50A4B03
:101EC0001A6942F002021A6158611A6942F040022E
:101ED0001A611A46FFF7EAFF0028FBD0136923F0C6
:101EE0000203136108BD00BF0020024002460E48F5
:101EF00008B5036943F001030361FFF7D7FF00282A
:101F0000FBD08BB21380FFF7D1FF0028FBD0090C68
:101F10005180FFF7CBFF0028FBD0034A136923F061
:101F20000103136108BD00BF0020024038B5002244
:101F300005464FF480413348FEF79AFD324B1A8A2A
:101F4000032A26D144F244415A8A8A421BD14FF4D3
:101F50007A714FF0804251639A692C4B2C4C1B686C
:101F60009A4206D1AA23062221462846237000F071
:101F700075FF0023012223704FF48041BDE83840F3
:101F80002048FEF775BD45F255518A42E4D1002143
:101F9000DFE7042A10D144F244415A8A8A4205D12B
:101FA0004FF47A714FF080429163D5E745F2555175
:101FB0008A42D1D10021F5E7012A16D144F24441E9
:101FC0005A8A8A4205D14FF47A714FF08042D16328
:101FD000C2E745F255518A42BED10021F5E745F2EC
:101FE00055518A42B8D1002108E0022AB4D144F206
:101FF00044415A8A8A42F2D14FF47A714FF08042BA
:102000001164A9E7001001408C0100204400002069
:10201000400100202DE9F843394E054600224FF4D7
:1020200000413848FEF724FD3368DFF8FC90012BAF
:10203000DFF8F880344F38D1344B354C5A6821469C
:10204000C9F800209A68DB68C8F800203B60AA2322
:1020500006222846237000F001FF3220FEF7C0F868
:1020600006222146284600F0F9FE3220FEF7B8F895
:1020700006222146284600F0F1FE3220FEF7B0F895
:1020800006222146284600F0E9FE3220FEF7A8F895
:1020900006222146284600F0E1FE3220FEF7A0F895
:1020A00006222146284600F0D9FE1A48FFF70EFC0A
:1020B00000244FF080430C21DC6317481C64FFF7B9
:1020C0004DFEFFF7DFFE1548FFF7F8FED9F80010C8
:1020D0001248FFF70BFFD8F800101148FFF706FF72
:1020E00039681048FFF702FFFFF7D8FE346001227D
:1020F000BDE8F8434FF400410248FEF7B9BC00BF09
:102100004000002000100140380000208C01002019
:102110004001002060000020D000002000400008A6
:10212000044000080840000830000020340000206F
:1021300038B5224B05461B68012B3ED1CC23204CE1
:1021400006222146237000F089FE1420FEF748F88D
:1021500006222146284600F081FE1420FEF740F8B2
:1021600006222146284600F079FE1420FEF738F8B2
:1021700006222146284600F071FE1420FEF730F8B2
:1021800006222146284600F069FE1420FEF728F8B2
:1021900006222146284600F061FE1420FEF720F8B2
:1021A00000210848FFF7DAFD4FF400510648FEF71A
:1021B00064FC064A13680133136038BD0800002030
:1021C000400100204C010020001001403C00002094
:1021D000012838B505463ED11F4C1421204600F099
:1021E0006AFD43F23332238893420CD044F24442D6
:1021F00093421CD041F2111293422CD12846BDE8E3
:102200003840FFF707BF154B62681B689A4222D11E
:10221000134BA2681B689A421DD1124BE2681B68DF
:102220009A4218D12846BDE83840FFF77FBE0B4BD5
:1022300062681B689A420ED1094BA2681B689A42D9
:1022400009D1084BE2681B689A4204D12846BDE8D0
:102250003840FFF76DBF38BD8C01002030000020F2
:10226000340000203800002010B50E48FEF728F991
:1022700064210C48FDF7C6FF0A48FEF761F80A4CD6
:1022800020600848FEF720FA40F6D76322689A4299
:10229000C8BF4FF496724FF08043D8BF00229A63B4
:1022A00010BD00BFA00000202C000020074B84B010
:1022B0001A6801925A6802929A6803929968044ACD
:1022C00011609A68034B5A6004B07047E8F7FF1F2B
:1022D0004400002040010020282230B595B00DEBCD
:1022E0000200002101F0C7F8142200210DEB0200CA
:1022F00001F0C1F81022002101A801F0BCF84FF450
:102300008033012202240B934FF4003112934FF4D7
:10231000E0130AA80A920E920C9113931194FEF7FF
:10232000BFFB0F23002505934FF48063214605A8CA
:102330000893069407950995FEF7BAFD4FF40043FC
:1023400001A803930194FEF761FE2A464FF0C06195
:102350002846FEF743FD15B030BD00000000000028
:102360002DE9F04F99B0FDF717FFFFF7B5FF1022E9
:10237000002110A801F07FF8B34B4FF460419A6937
:10238000B24842F010029A619A69002402F01002E9
:102390000392039A9A69012642F020029A619A698F
:1023A0004FF0020802F020020492049A9A694FF05A
:1023B000040A42F004029A619A694FF0080902F097
:1023C00004020592059A9A69A14D42F008029A61A9
:1023D0009B69002203F008030693069BFEF748FB67
:1023E00000224FF264019B48FEF742FB00224FF4AB
:1023F00040619948FEF73CFB4FF4604310A99348B5
:10240000109311961294CDF84C80FEF749FA10A95A
:1024100091481195CDF84080CDF84880FEF740FAFC
:102420008E4B10A98C481193CDF840A01296FEF760
:1024300037FA10A988481195CDF840901294FEF70C
:102440002FFA642310A98348109311961294CDF8A3
:102450004C80FEF725FA4FF4704310A97D48109385
:1024600011961296CDF84C80FEF71AFA4FF480734D
:1024700010A979481093CDF84480CDF84C80FEF730
:102480000FFA4FF4406310A97348109311961294F9
:10249000CDF84C80FEF704FA224621464846FEF766
:1024A000A7F94846FEF7D8F9214622460920FEF74B
:1024B0009FF90920FEF7D0F94FF482736848694A02
:1024C0004FF4602B80E80C004FF4007383611823F5
:1024D000C3610A23644DC3628460C46004614461C3
:1024E000046244628462FEF7EFFE604B28462B6074
:1024F000C5F81CB0AC602C732C756C602E61109408
:1025000011941294FEF760F8092310A9284610933D
:1025100011961294FDF718FF1C22214610A8099469
:102520000A9400F0A8FF4FF0804140F2CF23504DB5
:10253000504F85E80A004FF47A732846EB60AC6090
:102540002C61AC61FFF7D0FA09A9284609940A94D6
:10255000FFF752FC6023224610A9284610931194DD
:1025600012941494FFF734FB524610A92846FFF743
:102570002FFB4A4610A92846FFF72AFB0C2210A978
:102580002846FFF725FB284600F050FEC7F81CB090
:1025900041F61F4B384B38463B60BC603C733C7582
:1025A0007C603E61109411941294FEF70DF810A90E
:1025B0003846CDF8409011961294FDF7C5FE1C22C6
:1025C000214610A82D4F09940A9400F054FF2C4B7B
:1025D000384687E808084EF65F23BC60FB603C6124
:1025E000BC61FFF767FA09A9384609940A94FFF716
:1025F00003FC41F27073224610A9384611931094DF
:1026000012941494FFF7B6FA1C22214610A81D4F0D
:1026100009940A9400F02FFF1B4B384687E80808FE
:1026200042F20F73BC60FB6001933C61BC61FFF739
:1026300041FA09A9384609940A94FFF7DDFB42F2F2
:10264000107210A922E000BF0010024000100140EB
:1026500000001110000C0140000801400000211092
:10266000B001002000300140A000002000280140FF
:10267000080200201001002000240140600000201A
:1026800000080040D00000200004004011923846AD
:102690000C22109412941494FFF76CFA1C22214619
:1026A00009A80794089400F0E6FE2146202210A80D
:1026B00000F0E1FE924F934A019B87E804084FF433
:1026C000005B3846FB60BC603C617C61BC61FFF72D
:1026D000F1F907A9384607940894FFF78DFB2246C5
:1026E00009A9384609940A940B940C940D940E94FD
:1026F0000F94FFF73FFA10A93846109411941294E2
:1027000013941494CDF854B01794FFF793FB00F092
:1027100081F900F0A1FA00F00BFC304600F0C4FB98
:1027200000F082FB00F066FB132000F08EFA72A32B
:10273000D3E90023304600F0C7FA00F011FB214630
:102740002846FFF7B5FA51462846FFF7B1FA494641
:102750002846FFF7ADFA0C212846FFF7A9FA00F04A
:1027600071FA00F0BCFB00F074FA00F043FC324652
:102770004FF400416448FEF77BF932464FF4804144
:102780006148FEF775F9324659465F48FEF770F921
:1027900032464FF480515C48FEF76AF941465B4887
:1027A000FEF760F9B0422CD14FF4FA60FDF718FD46
:1027B00041465648FEF756F9B042044621D14FF43F
:1027C000FA60FDF70DFD22464FF400614F48FEF719
:1027D0004FF922464FF480614C48FEF749F94B4CC3
:1027E000494D02212046FEF73DF901287CD04FF4E7
:1027F000FA60FDF7F5FC01224FF480514248FEF7E4
:1028000037F900224FF400413F48FEF731F9FFF756
:102810004DFD3F48FDF772FF0C213E48FFF79EFA41
:102820003748FFF731F801224FF400513A48FEF7DC
:102830001FF901224FF480413748FEF719F90122B0
:102840004FF400413448FEF713F9344B344D1A6805
:10285000344B2E4C1A60344B1A68344B1A60344B8C
:102860001A68344B1A602E4800F014FA10B1287818
:10287000FFF7AEFC02212046FEF7F4F80128F2D162
:102880004FF4FA60FDF7ACFC02212046FEF7EAF8AF
:102890000128E8D100224FF400411B48FEF7E8F878
:1028A00000224FF480411848FEF7E2F800224FF46E
:1028B00000511548FEF7DCF800224FF48051124811
:1028C000FEF7D6F800224FF400611048FEF7D0F86A
:1028D00000224FF480610D48FEF7CAF84FF08043A4
:1028E0004FF4FA725A63FDE700224FF41041284674
:1028F000FEF7BEF875E700BFE2F0F0E8E800000080
:102900004C010020002C0140000C01400008014057
:10291000A0000020D000002000100140004000086E
:10292000480000203000002004400008340000204F
:10293000084000083800002004282DE9F0411BD190
:102940000024294E294FDFF8C88004213046FEF7C5
:1029500089F898B1A4F51C54254B113C9C420BD826
:102960004FF080434FF4FA722248DA631A64FEF79C
:102970009DFF0122204B1A60BDE8F0810421304602
:10298000FEF770F8013405460028DED11B4B9C424F
:10299000DBD1FFF777FA1A48FFF790FA4FF0FF31D3
:1029A0001748FFF7A3FA4FF0FF313846FFF79EFABA
:1029B0004FF0FF314046FFF799FAFFF76FFA114BDE
:1029C0001D60114B1D60114B1D604FF080450421AF
:1029D0003046FEF747F810B100236B63B5E74FF4BC
:1029E000FA736B63F3E700BF00080140044000087E
:1029F0000E7A0700600000204000002020A10700A0
:102A00000040000830000020340000203800002082
:102A100008400008054A136843F080731360044AB5
:102A2000136843F001031360704700BFFCED00E042
:102A3000001000E0064B074A1B68B3FBF2F30022CC
:102A40005843054B5A605A689042FCD8704700BF03
:102A50000C00002040420F00001000E008B50246C4
:102A600040210448FEF704F8BDE808400520FFF7C0
:102A7000E1BF00BF000C0140024620210148FDF7E4
:102A8000F7BF00BF000C01407FB500F01F008DF8BC
:102A90000E0000204FF47A7604AC0D4D04F8010DC1
:102AA000FFF7DCFF22460DF10E01009601232846B8
:102AB000FEF7EEFC01232246FF2100962846FEF792
:102AC000E7FC0120FFF7CAFF9DF80F0004B070BDBE
:102AD000B00100200023F0B564250E46174600F033
:102AE0001F0085B00F4C40F020008DF80F001846F5
:102AF0008DF80E30FFF7B2FF0DF10E020DF10F0150
:102B0000009501232046FEF7C3FC2B463A4631468A
:102B10002046FEF714FC0120FFF7A0FF9DF80E00F1
:102B200005B0F0BDB0010020002310B500F01F007B
:102B300086B040F020008DF8170018468DF80F1071
:102B40008DF81630FFF78AFF64230C4C00930DF1CB
:102B500016020DF1170101232046FEF799FC4FF4F0
:102B60007A7301220DF10F012046FEF7E8FB0120E8
:102B7000FFF774FF9DF8160006B010BDB0010020ED
:102B8000F7B51B4B07461C781A4B8C421B78264620
:102B900028BF0E46EBB9A41BE4B2612302AD05F8D1
:102BA000023D0020FFF75AFF294664230122124804
:102BB000FEF7C5FB3246642339460F48FEF758FD41
:102BC00000250D4E3CB90120FFF748FF204603B019
:102BD000F0BD0024E1E7642301220DF10701304636
:102BE000013C8DF80750E4B2FEF742FDEAE700BF72
:102BF0004A00002048020020B001002010B586B035
:102C00008DF80F00002006AC04F8010DFFF726FF39
:102C10004FF47A73224600930DF10F01012305480A
:102C2000FEF736FC0120FFF719FF9DF8170006B0EC
:102C300010BD00BFB0010020E220FFF7DFBFE120A0
:102C4000FFF7DCBFFF20FFF7D9BF01460520FFF7E4
:102C50006BBF0520FFF718BF08B50320FFF714FF6F
:102C60000138C0B202288CBF0020012008BD08B581
:102C70000020FFF709FF014610F0020009D141F0E2
:102C80000201C9B2FFF750FFBDE808400520FDF77B
:102C9000A7BA08BD10B504461720FFF7F5FEC30715
:102CA00007D424B1FFF7CEFFC0F34200207001200B
:102CB00010BD002010BD08B5FFF762FFBDE8084059
:102CC00070210720FFF730BF13B50446CDE900237C
:102CD00000BB134B69461A78124800F0C1FB104B39
:102CE0001A78114B6946185DFFF7F4FE0F4B1978FF
:102CF0000F4B185DFFF718FF0220FFF7C5FE0121FB
:102D00000C4B1B5D99400143C9B20220FFF70CFF39
:102D100002B010BD0628FBD80128E0D00122E0E770
:102D2000490000204B000020C63400084A00002063
:102D3000C0340008CC34000810B504460220FFF768
:102D4000A3FE0121054B1B5DBDE81040994020EA20
:102D50000101C9B20220FFF7E7BE00BFCC34000872
:102D600008B5FFF784FF0020FFF78EFE40F0010159
:102D7000C9B20020FFF7D8FE70210720FFF7D4FE6C
:102D80000120FFF779FE0A49087868B1094B0A204B
:102D90001A78FFF79FFE1D20FFF776FE830706D502
:102DA000BDE80840FFF74BBFFFF7C6FFF3E708BDDC
:102DB0004B00002049000020502337B50C4D02ACD9
:102DC00004F8013D0020FFF749FE21464FF47A73D5
:102DD00001222846FEF7B3FA4FF47A7301227321D9
:102DE0002846FEF7ACFA0120FFF738FE03B030BDED
:102DF000B001002008B51D20FFF746FE40F0040199
:102E0000C9B21D20FFF790FE1C20FFF73DFE40F0E9
:102E10003F01C9B21C20FFF787FE0122014B1A7047
:102E200008BD00BF4802002008B51D20FFF72CFE9A
:102E300040F00601C9B21D20FFF776FE1C20FFF707
:102E400023FE40F00301C9B21C20FFF76DFE0122F2
:102E5000014B1A7008BD00BF48020020F7B51746A5
:102E60000E4600F0070002AC0E4D60F0570004F86B
:102E7000010D0020FFF7F2FD21464FF47A73012285
:102E80002846FEF75CFA202F3A464FF47A7328BFA3
:102E9000202231462846FEF752FA0120FFF7DEFDD8
:102EA00003B0F0BDB0010020014600B13F21012078
:102EB000FFF73ABE10B504460620FFF7E5FD032CE8
:102EC0008EBF07246400013400F0F80198BF04F0BD
:102ED000FF0421430620BDE81040FFF725BE08B5DA
:102EE0000620FFF7D1FDC0F3410008BD38B5054607
:102EF0000620FFF7C9FD022D00F0D7040B4B0ED1C1
:102F00009B2244F02004214606201A70FFF70CFE95
:102F10000620FFF7B9FD231A5842584138BD012D4C
:102F200012BF552244F008044122ECE75000002073
:102F30002022F8B505270024294B2A4E1A702A4B67
:102F40002A4D1F702A4B20461C7034702C70FFF7DE
:102F500093FD0120FFF782FD3846FDF741F90C2172
:102F60002046FFF7E1FD5F210420FFF7DDFD032090
:102F7000FFF7A0FF0220FFF7B9FF08B1012333706C
:102F80000620FFF781FD002604460020FFF7AEFF74
:102F9000FFF712FF00211D20FFF7C6FD00211C20B6
:102FA000FFF7C2FD702107202E70FFF7BDFD4C20FA
:102FB000FFF74BFEFFF740FEFFF741FEFFF757FE1E
:102FC0003046FFF761FD00F0FE013046FFF7ACFD33
:102FD000601EC0B2FD288CBF00200120F8BD00BFDC
:102FE0004A00002049020020490000204802002039
:102FF0004B00002008B50620FFF746FD00F0280032
:10300000202804D0A0F108035842584108BD0220EE
:1030100008BD00000E4B82B09A6942F001029A612D
:103020009A6902F001020092009ADA6942F0805235
:10303000DA61DB69074A03F080530193019B53680F
:1030400023F0E06343F00073536002B0704700BFA9
:103050000010024000000140102210B5044688B064
:103060000DEB0200002100F006FA23681B4A934290
:103070001CD11B4B9A6942F400729A619A6902F45E
:1030800000720092009A9A6942F008029A619B6964
:1030900003F008030193019B01230493032304A974
:1030A00010480593FDF7FCFB08B010BD0E4A934293
:1030B000FAD10B4B9A6942F480629A619A6902F4E0
:1030C00080620292029A9A6942F008029A619B69B0
:1030D00003F008030393039B0223DEE7002401406F
:1030E00000100240000C01400028014010B50446C9
:1030F00086B01022002102A800F0BDF92268164B0C
:103100009A4226D103F560439A6902A942F480529B
:103110009A619A69114802F480520092009A9A6961
:1031200042F004029A619B6903F004030193019B3E
:10313000A02302930223039303230593FDF7B0FB1F
:1031400040230293002302A9044803930493FDF74C
:10315000A7FB06B010BD00BF0030014000080140D1
:103160001FB503681F4A934214D11F4B1B209A6955
:1031700042F400629A6100229B69114603F40063E5
:103180000193019BFDF734FB1B20FDF765FB05B0A8
:103190005DF804FB154A934210D1134B1D20DA69E8
:1031A00042F00202DA610022DB69114603F00203F9
:1031B0000293029BFDF71CFB1D20E6E70C4A93429D
:1031C000E5D1094B1E20DA6942F00402DA610022DF
:1031D000DB69114603F004030393039BFDF708FB2F
:1031E0001E20D2E7002C01400010024000040040E5
:1031F00000080040036807B5B3F1804F12D103F512
:103200000433DA691C2042F00102DA610022DB6932
:10321000114603F001030193019BFDF7E9FA1C201D
:10322000FDF71AFB03B05DF804FB000010B504467F
:1032300086B01022002102A800F01DF92368B3F126
:10324000804F2DD103F504339A69022442F008021D
:103250009A619A6902A902F008020092009A9A699A
:10326000104842F004029A619B69039403F004033E
:103270000193019B40F6084305940293FDF710FB70
:103280004FF4004302A90848029303940594FDF704
:1032900007FB064A536843F0E06343F4407353600E
:1032A00006B010BD000C01400008014000000140C4
:1032B0007047FEE7FEE7FEE7FEE77047704770479E
:1032C000FCF77CBF0420FDF7DFBB0820FDF7DCBB6B
:1032D00010B50C4C23680133022B23600DD1012261
:1032E000094B4FF4005109481A60FDF7C6FB002155
:1032F0000748FEF77FFD002323600548BDE8104026
:10330000FEF7FEBA5800002008000020001001401F
:103310004C0100200148FEF7F3BA00BF080200206C
:1033200008B50648FEF7ECFA4FF480410448FDF773
:10333000A4FBBDE80840FEF797BF00BFD000002007
:103340000010014038B50B4D2B680133042B2B6066
:103350000AD10024084B09481C60FEF7B7FA4FF069
:1033600080432C60DC631C640448BDE83840FEF7F1
:10337000C7BA00BF540000204000002060000020B9
:103380000F4B1A6842F001021A6059680D4A0A4050
:103390005A601A6822F0847222F480321A601A6825
:1033A00022F480221A605A6822F4FE025A604FF416
:1033B0001F029A604FF00062034B9A60704700BF93
:1033C000001002400000FFF800ED00E0002103E0E3
:1033D0000B4B5B58435004310A480B4B42189A423E
:1033E000F6D30A4A02E0002342F8043B084B9A4213
:1033F000F9D3FFF7C5FF00F00FF8FEF7B1FF7047F4
:10340000F43400080000002010000020100000200C
:103410004C020020FEE7000070B500250C4E0D4C5C
:10342000A41BA410A54209D100F02EF800250A4ED5
:103430000A4CA41BA410A54205D170BD56F8253036
:1034400098470135EEE756F8253098470135F2E701
:10345000EC340008EC340008EC340008F0340008C8
:1034600010B5431E0A44914200D110BD11F8014B22
:1034700003F8014FF7E703460244934200D1704737
:1034800003F8011BF9E70000F8B500BFF8BC08BC61
:103490009E467047F8B500BFF8BC08BC9E46704712
:1034A00002030405060708090A0B0C0D0E0F101085
:1034B00002030405060708090A0B0C0D0E0F101075
:1034C0001112131415160A0B0C0D0E0F0001020336
:1034D00004050000000000000000010203040607CC
:0C34E000080900000000010203040000C5
:0434EC00350100089E
:0434F00011010008BE
:1034F40001000000100000000100000000A24A04C6
:04000005080033CDEF
:00000001FF
