:020000040800F2
:1000000000500020AD360008AD350008AF350008BF
:10001000B1350008B3350008B53500080000000010
:10002000000000000000000000000000B7350008DC
:10003000B935000800000000BB350008BD350008D8
:10004000F5360008F5360008F5360008F5360008E4
:10005000F5360008F5360008F5360008C135000809
:10006000C7350008F5360008F5360008F5360008F3
:10007000F5360008F5360008F5360008F5360008B4
:10008000F5360008F5360008F5360008F5360008A4
:10009000F5360008F5360008F5360008F536000894
:1000A000F5360008F5360008F5360008CD350008AD
:1000B000D9350008E5350008F5360008F5360008A2
:1000C000F5360008F5360008F5360008F536000864
:1000D000F5360008F5360008F5360008F536000854
:1000E000F5360008F5360008F53600080000000077
:1000F0000000000000000000000000000000000000
:0C01000000000000000000005FF808F1A3
:1001100010B5054C237833B9044B13B10448AFF341
:1001200000800123237010BD140000200000000097
:100130006837000808B5034B1BB103490348AFF308
:10014000008008BD0000000018000020683700088B
:1001500038B50E4B054618784FF47A73B3FBF0F3BD
:100160000B4A1068B0FBF3F000F084FB044658B96A
:100170000F2D09D8024629464FF0FF3000F038FB1A
:10018000044B20461D6038BD012038BD0000002012
:100190001000002004000020074A08B5136803205F
:1001A00043F01003136000F011FB0020FFF7D0FFB5
:1001B00003F096F8002008BD00200240034A044BDB
:1001C00011681B780B441360704700BF7400002057
:1001D00000000020014B1868704700BF7400002029
:1001E00038B50446FFF7F6FF0546631C1EBF044BF7
:1001F0001B78E418FFF7EEFF401B8442FAD838BDA5
:1002000000000020F7B5002604460D460196FFF7D2
:10021000E1FF236807469A68D20508D50120A36A42
:1002200084F8246043F02003A36203B0F0BD5A6851
:10023000D60503D4DB6A13F4700F3BD03A4B02208F
:100240001E6800F055FF2368384A1969B6FBF0F0C4
:100250001142374A4FD1DE6836490E424BD11969F7
:10026000114259D1DA68344B1A4214BF292314239E
:1002700000FB03F6019B9E4220D96B1C05D05DB1AB
:10028000FFF7A8FFC01B854206D3019B01330193F2
:10029000F0E7681C0FD045B9A36A032043F00403BC
:1002A000A362002384F82430BFE7FFF793FFC01B4D
:1002B0008542F1D3226813689907EAD56FF01203DB
:1002C00022681360A36A43F40073A362936803F483
:1002D0006023B3F5602F25D1237B1BBBA36A23F4D6
:1002E0008073A362A06A10F480501BD1A36A43F00C
:1002F0000103A36299E71969114203D1D9680E4A33
:1003000011420BD019690D4A114209D1DB68134221
:1003100014BFFC235423ABE72923A9E75423A7E701
:10032000FC23A5E7002080E7100000202449922448
:1003300092244912244992009224490049922400AF
:100340000368D86C70470000002373B5019390F8E0
:100350002430012B74D001234D6880F82430062D01
:1003600002684FEA85030C6825D82B441F25566B7D
:10037000053B9D4026EA050504FA03F32B4353632E
:10038000092C4FEA44038D682FD907262344D168EE
:100390001E3B9E4021EA060105FA03F30B43D3609E
:1003A000A4F11003012B2BD90023002280F8242074
:1003B000184602B070BD0C2D0BD82B441F25166BB0
:1003C000233B9D4026EA050504FA03F32B43136300
:1003D000D6E72B441F25D66A413B9D4026EA0505FA
:1003E00004FA03F32B43D362CAE7072611692344B7
:1003F0009E4021EA060105FA03F30B431361CFE7A0
:10040000104B9A4216D193681B02CDD49368102CDE
:1004100043F400039360C7D10B4B0C4A1B68B3FB3A
:10042000F2F20A2353430193019B002BBCD0019BA2
:10043000013BF8E7836A43F0200383620123B4E7BA
:100440000223B5E7002401401000002040420F00C5
:10045000002373B50193036804469A68D20702D556
:10046000002002B070BD9A6842F001029A60124BFF
:10047000124A1B68B3FBF2F30193019BC3B9FFF768
:10048000A9FE064623689D6815F00105E8D1FFF72F
:10049000A1FE801B0228F5D9A36A84F8245043F0FA
:1004A0001003A362E36A012043F00103E362D8E78B
:1004B000019B013BE0E700BF1000002040420F001D
:1004C00090F8243010B5012B044654D0012380F855
:1004D0002430FFF7BDFF002849D1A36A274A23F43F
:1004E000407323F0010343F48073A36223689342B3
:1004F00004D123494A6812F4702F2ED1A26A22F443
:100500008012A2625A68520541BFA26A22F4405288
:1005100042F48052A262A26A12F480521CBFE26AC4
:1005200022F00602E262002284F824206FF0020228
:100530001A609A6802F46022B2F5602F13D10F4A54
:10054000934205D1A2F58062526812F4702F0AD14D
:100550009A6842F4A0029A6010BDA26A42F4801226
:10056000A2624A68CFE79A6842F48012F3E7002358
:1005700084F8243010BD022010BD00BF00280140C7
:100580000024014038B5036804469A68D20701D4B4
:10059000002038BD9A6822F001029A60FFF71AFE27
:1005A000054623689B68DB07F2D5FFF713FE401B67
:1005B0000228F6D9A36A012043F01003A362E36A7C
:1005C00043F00103E36238BD70B50446002871D0E2
:1005D000836A23B9C36280F8243002F0A3FE204668
:1005E000FFF7D0FFA36A13F0100FA36A64D10028AD
:1005F00062D1E16923F48853626823F0020343F077
:1006000002030A43A168A362237BB1F5807F42EA1B
:10061000430238D0012914BF06464FF48076257D69
:10062000012D07D1002B30D1A369013B46EA4335A8
:1006300045F400662368B1F5807F5D6825F469455F
:1006400045EA06055D609E681D4D05EA060545EA1A
:1006500002059D6001D0012920D1216901390905D8
:10066000DD6A25F470052943D9629968154B0B4062
:100670009A4215D10023E362A36A23F0030343F0F7
:100680000103A36270BD0E46C9E7A36A43F02003CD
:10069000A362E36A43F00103E362CBE70021DFE7F3
:1006A000A36A23F0120343F01003A362E36A43F04A
:1006B0000103E362012070BD43F01003A362F9E778
:1006C000FDF7E1FFFE0E1FFF90F8243010B5012B5F
:1006D000044611D0012380F82430FFF753FF38B9C6
:1006E000A36A23F4885323F0010343F00103A362B8
:1006F000002384F8243010BD022010BD002373B500
:10070000019390F824300446012B5AD0012380F83D
:100710002430FFF737FF0546002832D1A36A0220B4
:1007200023F4885323F0020343F00203A362264B11
:100730001E6800F0DDFCB6FBF0F040000190019B6C
:100740001BBB2046FFF784FE2268936843F0080332
:100750009360FFF73FFD064623689A68120718D496
:100760009A6842F004029A60FFF734FD0646236857
:100770009B685B071FD4A36A23F0030343F00103C4
:10078000A362002384F8243012E0019B013B019313
:10079000D5E7FFF71FFD801B0A28DDD9A36A0125D5
:1007A00023F0120343F01003A362002384F82430E3
:1007B000284602B070BDFFF70DFD801B0A28D6D970
:1007C000ECE70225F4E700BF10000020074A000212
:1007D000D36800F4E06023F4E0631B041B0C43F0D7
:1007E000BF6343F400330343D360704700ED00E080
:1007F000174B30B5DC68C4F30224C4F10703251D90
:10080000042B28BF0423062D4FF0010598BF0024B8
:1008100005FA03F303F1FF3388BF033C1940A140FD
:1008200005FA04F4013C2240002842EA01024FEAA2
:100830000212A9BF00F16040064BD2B200F5614040
:10084000BBBF00F00F00D2B280F800231A5430BDB5
:1008500000ED00E014ED00E0002808DB0123420970
:1008600000F01F0003FA00F0014B43F8220070472C
:1008700000E100E00138B0F1807F0AD2F021064BA0
:10088000064A586082F823100020072298601A60F8
:1008900070470120704700BF10E000E000ED00E06D
:1008A0002DE9F74F00242646664BDFF8A8E1DFF874
:1008B000A8C10A6832FA06F502D103B0BDE8F08F8C
:1008C0004FF0010808FA06F802EA080290457FD1C5
:1008D0004D68122D00F0AA8000F28380022D00F0F6
:1008E000A28077D8002D00F08980012D00F099803A
:1008F0004FF00F09FF2A93BF824606F18045083D5D
:10090000D0F800B092BFB500D0F804B0AD0009FA3D
:1009100005F82BEA080804FA05F588BF00F1040A77
:1009200048EA0505CAF80050D1F804A01AF0805F23
:100930004ED0454D444FAD6926F0030845F0010502
:10094000BD61BD6908F1804805F00105019508F514
:10095000803806F0030B019D4FEA8B0BD8F8085046
:1009600009FA0BF925EA0909384DA84263D005F5C3
:100970008065A84261D005F58065A8425FD005F585
:100980008065A8420CBF0325042505FA0BF545EA4E
:100990000905C8F808501D681AF4803F14BF1543B4
:1009A00095431D605D681AF4003F14BF15439543DD
:1009B0005D609D681AF4801F14BF154395439D60C8
:1009C000DD681AF4001F14BF2A4325EA0202DA6028
:1009D00001366EE7032D22D0112D89D1CC68043465
:1009E00086E71B4FBD4209D012D8DFF870904D4505
:1009F00004D009F580394D457FF47AAF8C68C4B1D5
:100A0000012C0CBFC0F81080C0F8148008246FE7D8
:100A10007545F3D06545F1D0DFF84490EBE700244D
:100A200066E7CC6864E7CC68083461E7CC680C34CE
:100A30005EE704245CE70025A7E70125A5E702257A
:100A4000A3E700BF0004014000100240000801407D
:100A500000002110000031100000321000001110C1
:100A6000000022108368194214BF01200020704743
:100A70000AB1016170470904FBE7000008B5044BA7
:100A80005969014202D0586102F020F808BD00BF48
:100A9000000401402DE9F341054608B901203CE07E
:100AA0000368DB0710D42B689F075DD42B681907F8
:100AB00000F194802B685A0700F1BE80E869002895
:100AC00040F02C81002028E08F4C636803F00C0379
:100AD000042B07D0636803F00C03082B09D163686B
:100AE000DE0306D523689C03DDD56B68002BDAD1C5
:100AF000D4E76B68B3F5803F12D1236843F48033A9
:100B00002360FFF767FB064623689803CBD4FFF703
:100B100061FB801B6428F7D9032002B0BDE8F08197
:100B20009BB9236823F480332360236823F4802354
:100B30002360FFF74FFB064623689903B3D5FFF701
:100B400049FB801B6428F7D9E6E7B3F5A02F23689B
:100B500003D143F480232360CFE723F48033236061
:100B6000236823F48023CBE7674C636813F00C0FF2
:100B700007D0636803F00C03082B10D16368DA0315
:100B80000DD423689B0702D52B69012B86D12368DE
:100B90006A6923F0F80343EAC203236086E72A69FF
:100BA0005A4B6AB101221A60FFF714FB064623680C
:100BB0009F07ECD4FFF70EFB801B0228F7D9ABE7A9
:100BC0001A60FFF707FB0646236898077FF56EAFAC
:100BD000FFF700FB801B0228F6D99DE7AA694A4C63
:100BE0004B4BDAB101221A60FFF7F4FA0646636A4A
:100BF0009B070DD54FF4FA52464B1B68B3FBF2F33B
:100C0000019300BF019B5A1E0192002BF9D151E7BD
:100C1000FFF7E0FA801B0228E9D97DE71A60FFF7A9
:100C2000D9FA0646636A9F077FF544AFFFF7D2FA09
:100C3000801B0228F6D96FE7334CE369D80024D42F
:100C40000127E36943F08053E361E36903F08053D4
:100C50000093009B304E3368D90518D5EB68012B03
:100C600026D1236A43F001032362FFF7B3FA41F26E
:100C700088368046236A9B073FD5002F3FF41EAF7E
:100C8000E36923F08053E36118E70027E2E7336864
:100C900043F480733360FFF79DFA80463368DA05CA
:100CA000DCD4FFF797FAA0EB08006428F6D933E705
:100CB000ABB9236A41F2883823F001032362236A27
:100CC00023F004032362FFF785FA0646236A980798
:100CD000D3D5FFF77FFA801B4045F7D91CE7052BDA
:100CE000236A03D143F004032362BAE723F001032C
:100CF0002362236A23F00403B6E7FFF76BFAA0EB45
:100D00000800B042B6D907E7001002400000424296
:100D10008004424210000020007000402A4B5A68B4
:100D20001C4602F00C02082A3DD00023274E022860
:100D300033602BD1FFF74EFA0746236899011FD481
:100D40002B6AB3F5803F05D16268A96822F40032AE
:100D50000A436260696A62680B4322F474121343A7
:100D6000636001233360FFF735FA054623689A0173
:100D70003FF5A8AEFFF72EFA401B0228F6D9CBE6C6
:100D8000FFF728FAC01B0228D7D9C5E6FFF722FAD9
:100D9000054623689B017FF595AEFFF71BFA401BC4
:100DA0000228F6D9B8E601283FF4B7AE58682B6A96
:100DB00000F480329A427FF471AE6B6A00F47010D6
:100DC000C01A18BF0120A8E600100240600042428D
:100DD00030B587B00D461022002102A802F0BBFCFE
:100DE00002230393032305934FF480730A4C029369
:100DF000A36902A943F00403A361A369074803F0B0
:100E000004030193019BFFF74BFD616821F0E06152
:100E10002943616007B030BD001002400008014066
:100E200030B51B4B87B002AC03F1100522461868A1
:100E30005968083303C2AB421446F7D101238DF839
:100E40000430022313498DF805304B6803F00C027F
:100E5000042A1BD0082A02D00F4807B030BDC3F3C4
:100E6000834206A80244DB0312F8102C0BD54B6812
:100E70000A48C3F34043504306AA134413F8143CF2
:100E8000B0FBF3F0E9E706485043E6E70348E4E740
:100E9000803700080010024000127A000024F4009D
:100EA00000093D002DE9F0410D46044610B901202E
:100EB000BDE8F081454A136803F007038B4229D34C
:100EC00021688E0731D4CA0744D4404A136803F01E
:100ED00007039D4267D322683D4D12F0040F6ED187
:100EE000130706D56B68226923F4605343EAC203F3
:100EF0006B60FFF795FF6B68364AC3F30313D35C4F
:100F0000D840354B1860354B1868FFF721F90020A1
:100F1000BDE8F081136823F007030B4313601368E7
:100F200003F007039942C2D1CAE7294B11F0040F1D
:100F30001EBF5A6842F4E0625A60080742BF5A680E
:100F400042F460525A605A68A06822F0F0020243EC
:100F50005A60B8E762681E4E012A33681BD113F449
:100F6000003FA4D0736841F2883823F00303134391
:100F70007360FFF72FF907467368626803F00C038C
:100F8000B3EB820FA1D0FFF725F9C01B4045F3D981
:100F90000320BDE8F081022A02D113F0007FE0E7D0
:100FA00013F0020FDDE7136823F007032B431360F0
:100FB000136803F007039D427FF479AF8BE76B68FA
:100FC000E16823F4E0630B436B6089E70020024093
:100FD00000100240B237000810000020040000207A
:100FE000044B054A5B68C3F3C223D35C034A106811
:100FF000D840704700100240C2370008100000209F
:1010000003682DE9F341D907054620D5354CE3693E
:10101000DA0032D40127E36943F08053E361E369E6
:1010200003F080530193019B2F4E3368DB0526D5D7
:10103000236A13F4407336D1236A6A6823F4407339
:10104000134323621FB1E36923F08053E3612868EF
:10105000830706D5234AA968536823F440430B430A
:10106000536010F010001BD01E4AE968536800203E
:1010700023F480030B43536012E00027D4E7336866
:1010800043F480733360FFF7A5F880463368D805D2
:10109000CED4FFF79FF8A0EB08006428F6D9032010
:1010A00002B0BDE8F0816A6802F440729342C3D096
:1010B00001200E4A236A1060002023F44071106062
:1010C0002162D907B8D5FFF785F841F2883806467E
:1010D000236A9A07B0D4FFF77DF8801B4045F7D903
:1010E000DDE700BF001002400070004040044242B3
:1010F00070B50446344B86B002AD03F110062A46A3
:1011000018685968083303C2B3421546F7D1012362
:101110008DF8043002239C428DF8053046D0102C07
:1011200017D0012C4ED140F20231284A136A1940DF
:10113000B1F5817F43D003F44073B3F5007F2DD127
:1011400049F64040536A13F0020F08BF002006B072
:1011500070BD1E4B5968186810F08070F7D0C1F34D
:10116000834206A8024412F8100CCA0341BF5A6811
:1011700006A9C2F34042521844BF12F8141C144A84
:101180005B684CBFB2FBF1F2124A5B0202FB00F05B
:10119000DDD403234000B0FBF3F0D8E7B3F5407F84
:1011A00010D113680C4813F4003FCEE7FFF718FF87
:1011B000064B5B68C3F3813301335B00EBE74FF40D
:1011C0000040C4E70020C2E790370008001002404A
:1011D0000024F40000093D0048E80100F8B5044689
:1011E0000E4615461F4621688A6836EA020301D07A
:1011F0000020F8BD6B1CF7D0FEF7ECFFC01B85424A
:10120000F1D823685A6822F0E0025A606268B2F5A9
:10121000827F0AD1A268B2F5004F02D0B2F5806F8A
:1012200003D11A6822F040021A60A26AB2F5005F88
:1012300007D11A6822F400521A601A6842F4005268
:101240001A60012384F851300023032084F85030C1
:10125000F8BD38B5134642680446B2F5827F16D110
:101260008068B0F5004F02D0B0F5806F0FD12268D2
:10127000B0F5806F156825F04005156007D10A4666
:1012800001212046FFF7AAFF20B9002038BD0A46F9
:101290008021F6E7636D032043F02003636538BDCA
:1012A00010B513460A4680210446FFF797FF20B188
:1012B0000320636D43F02003636510BD10B5044641
:1012C000002834D00023836290F8513003F0FF02ED
:1012D0001BB980F8502002F06FF80223226884F8CE
:1012E00051301368A06823F0400313606368A1695C
:1012F0000343E06803432069034360690343E069F3
:101300000343206A0343A06A034301F40070090CFD
:10131000034301F0040113605160D369002023F4FA
:101320000063D3610123606584F8513010BD012052
:1013300010BD2DE9F3411E4690F850300446012BB4
:101340000D46904600F09C80012380F85030FEF757
:1013500041FF074694F85100C0B2012840F08E804A
:10136000002D5ED0B8F1000F5BD00323002084F87D
:101370005130A3686065A063A4F83680A087E08739
:10138000606420642068B3F5004F08BF03682563DC
:1013900008BF43F48043A4F8348008BF03600368A7
:1013A0005B065EBF036843F040030360E368B3F588
:1013B000006F63683ED113B1B8F1010F07D135F862
:1013C000023BC3602563E38E013B9BB2E386E38E61
:1013D0009BB2A3B93A4631462046FFF761FF002889
:1013E00049D1A36833B901932368DA6801929B68F5
:1013F0000193019B606D003018BF012011E022684D
:101400009368980705D5236B33F8021BD1602363DB
:10141000D9E7FEF7DFFEC01BB042D8D3711CD6D08F
:101420000320012384F85130002384F8503002B0A7
:10143000BDE8F08113B1B8F1010F08D12B78037327
:10144000236B01332363E38E013B9BB2E386E38E80
:101450009BB2002BBED023689A68920703D5226BFB
:1014600012781A73ECE7FEF7B5FEC01B8642EED881
:10147000731CECD0D4E720236365B2E70220D0E7E9
:101480000220D4E72DE9F7431E4690F85030044679
:10149000012B0D4691460A9F00F0E280012380F85F
:1014A0005030FEF797FE94F851308046DBB2012BA6
:1014B00061680AD0B1F5827F40F0D080A068002832
:1014C00040F0CC80042B40F0C980002D00F0C48097
:1014D000B9F1000F00F0C080002E00F0BD8094F83C
:1014E0005130C4F83890042B1CBF052384F85130C8
:1014F00000236365236463642368E687E6861A68CD
:10150000A687500658BF1A68256358BF42F04002AC
:10151000A68658BF1A60E268B2F5006F58D109B1CB
:10152000012E07D135F8022BDA60E38E2563013BEB
:101530009BB2E3860125E38E9BB2ABB9E38F9BB2EE
:1015400093B9424639462046FFF7AAFE002840F0EC
:101550008180A368002B32D123680190DA68019260
:101560009B680193019B2AE02268936899070DD537
:10157000E38E9BB253B14DB10025236B33F8021BB0
:10158000D1602363E38E013B9BB2E3869368DB0764
:101590000CD5E38F9BB24BB10125D268A36B23F826
:1015A000022BA363E38F013B9BB2E387FEF712FE9E
:1015B000A0EB08008742BED87E1CBCD003200123CC
:1015C00084F85130002384F8503003B0BDE8F08334
:1015D00009B1012E08D12A781A73236B01332363D2
:1015E000E38E013B9BB2E3860125E38E9BB21BB9E0
:1015F000E38F9BB2002BA4D02268936898070ED586
:10160000E38E9BB25BB155B10025236B1B7813733E
:10161000236B01332363E38E013B9BB2E386226895
:101620009368D9070DD5E38F9BB253B10125D268DA
:10163000A36B1A70A36B0133A363E38F013B9BB2CF
:10164000E387FEF7C7FDA0EB08008742CDD87B1CDF
:10165000CBD0B3E7202363650120B0E70220AEE7DB
:101660000220B2E72DE9F3411D4643680446B3F575
:10167000827F884617460CD1836853B9042380F8CB
:101680005130134600950A46FFF7FCFE02B0BDE854
:10169000F08194F85030012B79D0012384F8503038
:1016A000FEF798FD064694F85100C0B201286CD1AF
:1016B000B8F1000F57D0002F55D0042384F85130D3
:1016C000002363652363E787A386E386236463645B
:1016D000A368A787B3F5004F2368C4F8388002BF1A
:1016E0001A6822F480421A601A6857065EBF1A68A8
:1016F00042F040021A60E368F3B1E38F9BB2FBB1A2
:1017000023689A68D20735D5DA68A36B23F8022BD1
:10171000A363E38F013B9BB2E387EEE723689A68FC
:10172000D00718D51B7BA26B1370A36B0133A36387
:10173000E38F013B9BB2E387E38F9BB2002BEDD19C
:10174000324629462046FFF784FDD8B9606D003047
:1017500018BF012007E0FEF73DFD801B8542EBD856
:10176000691CE9D00320012384F85130002384F858
:1017700050308BE7FEF72EFD801B8542BDD86B1CD9
:10178000BBD0EFE720236365E0E70220EBE7022010
:101790007CE70000036A70B523F001030362036A6B
:1017A000446882690D6822F073022A438D6823F031
:1017B00002032B430A4DA8420BD1CD6823F0080346
:1017C0002B438E694D6924F44074354323F00403A0
:1017D0002C43446082614A684263036270BD00BF6B
:1017E000002C0140036A70B523F480730362036A1E
:1017F0004468C2690D6822F073022A438D6823F49D
:10180000007343EA05230B4DA8420DD1CD6823F4A4
:10181000006343EA05238E694D6924F4405435433F
:1018200023F4806344EA05144460C2614A68C263D9
:10183000036270BD002C0140036A30B523F480536D
:101840000362036A4468C2690D6822F4E64242EA10
:1018500005228D6823F4005343EA0533064DA84260
:1018600002BF4D6924F4804444EA85144460C26197
:101870004A680264036230BD002C0140022380F8F4
:101880003D3003689A6802F00702062A1EBF1A68F4
:1018900042F001021A60012380F83D3000207047B9
:1018A0000368DA6822F00102DA6041F21112196A63
:1018B000114208D140F24442196A114202BF1A682B
:1018C00022F001021A60002070477047704770478D
:1018D0007047036810B51A69044691070ED5DA6897
:1018E00092070BD56FF002021A6101229B69027701
:1018F0009B0777D0FFF7EAFF0023237723681A6955
:10190000500710D5DA6851070DD56FF004021A613F
:1019100002229B69227713F4407F204668D0FFF7AC
:10192000D5FF0023237723681A6912070FD5DA68D9
:1019300010070CD56FF008021A610422DB692277C8
:10194000990720465AD0FFF7C1FF00232377236869
:101950001A69D20610D5DA68D0060DD56FF01002DC
:101960001A610822DB69227713F4407F20464BD0AE
:10197000FFF7ACFF0023237723681A69D10708D546
:10198000DA68D20705D56FF0010220461A61FFF729
:101990009CFF23681A69100608D5DA68110605D578
:1019A0006FF0800220461A6100F055FA23681A6928
:1019B000520608D5DA68500605D56FF04002204679
:1019C0001A61FFF785FF23681A69910622D5DA6844
:1019D00092061FD56FF020022046BDE810401A6124
:1019E00000F038BA01F02CF82046FFF770FF83E7CB
:1019F00001F026F82046FFF76AFF92E701F020F891
:101A00002046FFF764FFA0E701F01AF82046FFF731
:101A10005EFFAFE710BD00001A4A036890420AD08B
:101A2000B0F1804F07D0A2F59432904203D002F576
:101A30008062904215D14A6823F070031343114A23
:101A400090420AD0B0F1804F07D0A2F59432904274
:101A500003D002F58062904203D1CA6823F4407338
:101A600013434A6923F08003134303608B68C36206
:101A70000B688362034B984204BF0B690363012325
:101A800043617047002C014010B50446A0B190F8A6
:101A90003D3003F0FF021BB980F83C2001F0C6FC8A
:101AA0000223206884F83D30211DFFF7B5FF012394
:101AB000002084F83D3010BD012010BD10B5044653
:101AC000A0B190F83D3003F0FF021BB980F83C2034
:101AD00001F0E0FC0223206884F83D30211DFFF76F
:101AE0009BFF0123002084F83D3010BD012010BD74
:101AF000036A70B523F010030362036A44688269C5
:101B00000D6822F4E64242EA05228D6823F02003A4
:101B100043EA05130B4DA8420DD1CD6823F0800395
:101B200043EA05138E694D6924F44064354323F07C
:101B3000400344EA8504446082614A688263036228
:101B400070BD00BF002C014038B590F83C30044611
:101B5000012B4FF0020018D0012384F83D0084F8D7
:101B60003C301D460C2A0BD8DFE802F0070A0A0AAF
:101B7000100A0A0A140A0A0A18002068FFF70AFE67
:101B8000002084F83D5084F83C0038BD2068FFF701
:101B9000AFFFF5E72068FFF725FEF1E72068FFF7C4
:101BA0004BFEEDE738B590F83C300446012B4FF082
:101BB000020025D0012384F83D0084F83C300C2A33
:101BC00018D8DFE802F0071717171E1717172F1777
:101BD000171740002068FFF7DDFD236809699A693F
:101BE00042F008029A619A6922F004029A619A69A5
:101BF0000A439A610123002084F83D3084F83C00B8
:101C000038BD2068FFF774FF236809699A6942F4B8
:101C100000629A619A6922F480629A619A6942EA42
:101C20000122E6E72068FFF7DDFD23680969DA692C
:101C300042F00802DA61DA6922F00402DA61DA6954
:101C40000A43DA61D6E72068FFF7F6FD23680969E1
:101C5000DA6942F40062DA61DA6922F48062DA61F8
:101C6000DA6942EA0122ECE710B50124036A01F0C7
:101C70001F018C4023EA04030362036A8A401A436B
:101C8000026210BD10B5044601220068FFF7ECFFA8
:101C90002368094A0020934202BF5A6C42F4004272
:101CA0005A649A6802F00702062A1EBF1A6842F0B8
:101CB00001021A6010BD00BF002C014010B504469F
:101CC0000C290DD8DFE801F0070C0C0C230C0C0CD0
:101CD000280C0C0C2D000268D36843F00203D3607B
:101CE00020680122FFF7C0FF2368104A00209342BA
:101CF00002BF5A6C42F400425A649A6802F007022A
:101D0000062A1EBF1A6842F001021A6010BD02685E
:101D1000D36843F00403E2E70268D36843F00803A2
:101D2000DDE70268D36843F01003D8E7002C0140D8
:101D3000FFF7C4BF10B504460C290DD8DFE801F049
:101D4000070C0C0C320C0C0C370C0C0C3C00026811
:101D5000D36823F00203D36000222068FFF784FFDA
:101D60002368184A93420DD141F21112196A1142A7
:101D700008D140F24442196A114202BF5A6C22F45F
:101D800000425A6441F21112196A114208D140F21C
:101D90004442196A114202BF1A6822F001021A6015
:101DA000002010BD0268D36823F00403D3E7026863
:101DB000D36823F00803CEE70268D36823F010034A
:101DC000C9E700BF002C0140FFF7B4BF90F83C30DA
:101DD00030B5012B4FF0020314D0046880F83D3079
:101DE0006268A3680D68496822F0700223F08003DE
:101DF0000B432A436260A360012380F83D30002337
:101E000080F83C30184630BD90F83C30012B1FD094
:101E1000CB688A6823F4407313434A6823F48063D1
:101E200013430A6823F4006313430A6923F48053BD
:101E300013434A6923F400531343CA6923F48043CC
:101E4000134302685364002380F83C3018467047FF
:101E50000220704770477047034B044A5A6002F1F2
:101E600088325A60704700BF002002402301674556
:101E7000024A136943F08003136170470020024057
:101E8000024BD868C04300F00100704700200240B8
:101E900008B50A4B1A6942F002021A6158611A69C0
:101EA00042F040021A611A46FFF7EAFF0028FBD011
:101EB000136923F00203136108BD00BF0020024034
:101EC00002460E4808B5036943F001030361FFF7BA
:101ED000D7FF0028FBD08BB21380FFF7D1FF00287B
:101EE000FBD0090C5180FFF7CBFF0028FBD0034A41
:101EF000136923F00103136108BD00BF00200240F5
:101F00000A22264B10B51A60254B1A8A032A1ED1C5
:101F100044F244415A8A8A4213D14FF47A714FF005
:101F2000804251639A691F4B1F4C1B689A4205D12E
:101F3000AA2306222146237001F0F6F8002323701D
:101F400010BD45F255518A42ECD10021E7E7012A44
:101F500010D144F244415A8A8A4205D14FF47A7131
:101F60004FF08042D163DDE745F255518A42D9D125
:101F70000021F5E7022AD5D144F244415A8A8A4227
:101F800005D14FF47A714FF080421164CAE745F2EF
:101F900055518A42C6D10021F5E700BF0C00002050
:101FA000A401002058000020580100202DE9F0472E
:101FB000DFF82CA10546DAF80030DFF82891012B74
:101FC000DFF824813D4F5ED13D4B3E4C5A6821469F
:101FD000C9F800209A68DB68C8F800203B60AA2393
:101FE0000622237001F0A0F83220FEF7F9F821460E
:101FF0000622284601F098F83220FEF7F1F8214633
:102000000622284601F090F83220FEF7E9F8214632
:102010000622284601F088F83220FEF7E1F8214632
:102020000622284601F080F83220FEF7D9F8214632
:1020300028464FF0804400254FF47A76062201F0BE
:1020400073F82148FFF72CFCE563C8202564FEF7F0
:10205000C7F8E663C8202664FEF7C2F8E563C82027
:102060002564FEF7BDF8E6634FF496702664FEF72C
:10207000B7F8E5632A4625644FF480411348CAF84F
:102080000050FEF7F5FC0C211148FFF751FEFFF759
:10209000E3FE1048FFF7FCFED9F800100D48FFF7EB
:1020A0000FFFD8F800100C48FFF70AFF39680B48FB
:1020B000FFF706FFBDE8F047FFF7DABE3C0000205F
:1020C000A4010020580100207800002000100140E9
:1020D000E800002000400008044000080840000814
:1020E000540000203400002038000020F8B51B4EBA
:1020F00007463568012D28D1CC23194C06222146EC
:10210000237001F011F81420FEF76AF80622214628
:10211000384601F009F81420FEF762F8062221463D
:10212000384601F001F81420FEF75AF800210D4856
:102130003160FFF7FDFD2A464FF400510A48FEF7D3
:1021400097FC0A4A1368013313600022084B1A6097
:102150004FF49672074B1A60F8BD00BF08000020CC
:102160005801002064010020001001404C000020B4
:10217000480000200C00002038B50023234C012823
:10218000054623806360A360E3603DD114212046AF
:1021900000F0F7FE43F23332238893420CD044F22E
:1021A000444293421CD041F2111293422CD1284652
:1021B000BDE83840FFF7FABE154B62681B689A42CB
:1021C00022D1144BA2681B689A421DD1124BE268BF
:1021D0001B689A4218D12846BDE83840FFF790BEE8
:1021E0000B4B62681B689A420ED10A4BA2681B68AF
:1021F0009A4209D1084BE2681B689A4204D12846EA
:10220000BDE83840FFF772BF38BD00BFA401002011
:1022100034000020380000203C00002010B5124897
:10222000FEF74EF964211048FDF7ECFF0E48FEF76B
:1022300087F80E4C20600C48FEF746FA23684FF4EE
:102240000041BDE81040B3F57A6FA8BF64224FF09B
:102250008043B5BF4FF4C8729A639A630122B8BF36
:1022600000220348FEF704BCB80000203000002024
:1022700000100140074B84B01A6801925A6802921C
:102280009A6803929968044A11609A68034B5A60ED
:1022900004B07047E8F7FF1F5800002058010020E5
:1022A00038B50122042105465D48FEF7E1FB5D4893
:1022B000FEF706F964215B48FDF7A4FF5948FEF7D5
:1022C0003FF8594C20605748FEF7FEF900220421E0
:1022D0005348FEF7CDFB012D40F0A1802368B3F5F4
:1022E000486F05DB00224FF470414D48FEF7C0FBFC
:1022F0002368A3F6B833C72B11D800224FF400414E
:102300004748FEF7B5FB00224FF480414448FEF7F2
:10231000AFFB00224FF400514148FEF7A9FB2368B0
:10232000A3F52F63B3F5C87F0BD200224FF4004111
:102330003B48FEF79DFB00224FF480413848FEF7F2
:1023400097FB2368A3F62823C72B05D800224FF458
:1023500000413348FEF78CFB40F6272322689A425F
:102360005DDC00224FF400412D48FEF781FB4FF465
:102370009670FDF735FF01224FF400412848FEF723
:1023800077FB4FF49670FDF72BFF00224FF40041CE
:102390002348FEF76DFB4FF49670FDF721FF0122F5
:1023A0004FF400411E48FEF763FB4FF49670FDF7B3
:1023B00017FF00224FF400411948FEF759FB4FF474
:1023C0009670FDF70DFF01224FF400411448FEF70F
:1023D0004FFB4FF49670FDF703FF00224FF40041CE
:1023E0000F48FEF745FB4FF49670FDF7F9FE01220A
:1023F0004FF400410A48FEF73BFB4FF49670FDF79F
:10240000EFFE00224FF400610848FEF731FBBDE803
:10241000384000224FF480610448FEF729BB38BDE4
:10242000000C01402801002040000020000801406D
:10243000282230B595B00DEB0200002101F08BF998
:10244000142200210DEB020001F085F91022002179
:1024500001A801F080F94FF48033012202240B938C
:102460004FF4003112934FF4E0130AA80A920E922F
:102470000C9113931194FEF70DFB0F230025059388
:102480004FF48063214605A80893069407950995A3
:10249000FEF708FD4FF4004301A803930194FEF7F3
:1024A000AFFD2A464FF0C0612846FEF791FC15B0FB
:1024B00030BD0000000000002DE9F04F99B0FDF79D
:1024C0006BFEFFF7B5FF1022002110A801F043F9C1
:1024D000B04B4FF460419A69AF4842F010029A61E4
:1024E0009A69002402F010020392039A9A69012665
:1024F00042F020029A619A69022702F020020492B7
:10250000049A9A694FF0040942F004029A619A69A8
:102510004FF0080802F004020592059A9A699F4D4F
:1025200042F008029A619B69002203F008030693B7
:10253000069BFEF79DFA00224FF264019848FEF7D1
:1025400097FA00224FF440619648FEF791FA4FF453
:10255000604310A990481093119612941397FEF7B8
:102560009FF910A98F48119510971297FEF798F9C7
:102570008D4B10A98B481193CDF840901296FEF721
:102580008FF910A98748CDF8408011951294FEF775
:1025900087F9642310A9824810934FF4704A11966A
:1025A00012941397FEF77CF9112310A97C4811931C
:1025B000CDF840A012961397FEF772F94FF480738E
:1025C00010A97848109311971397FEF769F94FF403
:1025D000406310A973481093119612941397FEF755
:1025E0005FF9224631460720FEF702F90720FEF781
:1025F00033F9314622464046FEF7FAF84046FEF7E8
:102600002BF94FF482736948694A6A4D80E80C00DF
:102610004FF4007383611823C3610A238460C3628B
:10262000C46004614461046244628462FEF746FE51
:10263000614B28462B604FF46023AC60EB61019343
:102640002C732C756C602E61109411941294FDF70C
:10265000BBFF092210A92846109211961294FDF78B
:1026600073FE21461C2210A809940A9401F073F805
:102670004FF0804240F2CF23504D4FF0600B85E881
:102680000C004FF47A732846EB60AC602C61AC61AF
:10269000FFF714FA09A9284609940A94FFF796FB54
:1026A000224610A92846CDF840B0119412941494F3
:1026B000FFF778FA4A4610A92846FFF773FA424610
:1026C00010A92846FFF76EFA10A90C222846FFF73A
:1026D00069FA28463A4D00F00BFF019B394A28461B
:1026E000EB612A60AC602C732C756C602E611094C9
:1026F00011941294FDF768FF10A92846CDF8408088
:1027000011961294FDF720FE1C22214610A8099470
:102710000A9401F020F840F2CF232B4D2B49284694
:1027200085E80A004FF47A73AC60EB602C61AC6111
:10273000FFF7C4F909A9284642F20F7809940A94D0
:10274000FFF744FBCDF840B041F61F4B4A4610A9B5
:102750002846119412941494FFF724FA284600F0A6
:10276000C7FE1B4D1C22214610A809940A9400F0B4
:10277000F2FF184B284685E80808C5F80C80AC60C5
:102780002C61AC61FFF780F909A9284609940A94E5
:1027900022E000BF001002400010014000001110B4
:1027A000000C014000080140000021100802002038
:1027B00000300140B80000200028014060020020E5
:1027C000280100200024014078000020000800407B
:1027D000E800002000040040FFF7F8FA42F210730E
:1027E0000C2210A928461193109412941494FFF708
:1027F000ABF91C22214609A80794089400F0ABFF0E
:102800002022214610A800F0A6FF7F4D7F4BC5F87F
:102810000C8085E808084FF480734FF40058284670
:102820002B61AC606C61AC61FFF72EF907A92846FB
:1028300007940894FFF7CAFA224609A92846099482
:102840000A940B940C940D940E940F94FFF77CF95A
:102850004A4609A92846FFF777F910A92846109497
:102860001194129413941494CDF854801794FFF794
:10287000CBFA324651466648FEF7FAF822464FF444
:1028800000416348FEF7F4F84FF41670FDF7A8FC1A
:1028900022464FF480415E48FEF7EAF84FF4167086
:1028A000FDF79EFC224641465948FEF7E1F84FF4F9
:1028B0001670FDF795FC22464FF480515448FEF700
:1028C000D7F839465348FEF7CDF8B04208D1514DFC
:1028D00002215048FEF7C6F80128044600F0818026
:1028E00001224FF470414A48FEF7C2F800224FF42B
:1028F00070414748FEF7BCF84FF49670FDF770FC46
:1029000001224FF470414248FEF7B2F84FF496703E
:10291000FDF766FC0120FFF7C3FC40F6B830FDF779
:102920005FFC4FF4704101223948FEF7A1F8FFF730
:10293000A1FC00F0D5F900F0F5FA00F05FFC0120F1
:1029400000F018FC00F0D6FB00F0BAFB132000F0FA
:10295000E2FA2BA3D3E90023012000F01BFB00F0D7
:1029600065FB00F0D5FA00F020FC00F0D8FA00F08A
:10297000A7FC01224FF400612648FEF779F80021F8
:102980002548FFF77FF904212348FFF77BF9082149
:102990002148FFF777F90C211F48FFF773F91F480B
:1029A000FDF7ACFE0C211E48FFF7C2F91648FEF7F2
:1029B00065FF1C4B1C4C1A681C4B1A601C4B1A6898
:1029C0001C4B1A601C4B1A681C4B1A60FFF726FC44
:1029D000154800F0C5FA0028FAD02078FFF7CCFBA4
:1029E000F6E76420FDF7FCFB284622464FF48061A1
:1029F000FEF73EF86420FDF7F3FB69E7AFF30080D4
:102A0000E2F0F0E8E800000064010020002C014042
:102A1000000C01400008014060020020B8000020C6
:102A2000E8000020004000085C0000203400002086
:102A30000440000838000020084000083C00002046
:102A400038B502681A4B04469A4230D1027F012AF7
:102A500012D1184D2B680133022B2B6027D1164B56
:102A6000002116481A60FFF7AFF900224FF4005119
:102A700013482A60FDF7FCFF237F022B17D1114C6E
:102A800023680133142B236011D100224FF48041BD
:102A90000B48FDF7EDFF04210848FFF795F90023E7
:102AA000094A236013604FF08042D363136438BD3A
:102AB000002C01406C000020080000206401002070
:102AC0000010014070000020540000202DE9F04764
:102AD0000446C820FDF784FB042C40F083800026C8
:102AE000DFF8E881DFF8F091DFF8F0A1042140463B
:102AF000FDF7B8FFD0B1A6F543466A4B513E9E4262
:102B000012D84FF080434FF4FA720421DA6366481A
:102B10001A64FFF70DF901224FF480416348FDF775
:102B2000A7FF0122624B1A60BDE8F08704214046EE
:102B3000FDF798FF013605460028D7D15D4B9E4230
:102B4000D4D14FF080444FF47A77FFF785F95A4893
:102B5000FFF79EF94FF0FF315748FFF7B1F94FF0FB
:102B6000FF314846FFF7ACF94FF0FF315046FFF711
:102B7000A7F9FFF77DF9514BC8201D60504B1D6030
:102B8000504B1D60E5632564FDF72AFBE763C82011
:102B90002764FDF725FBE563C8202564FDF720FBCE
:102BA000E7634FF496702764FDF71AFBE563C820CE
:102BB0002564FDF715FBE763C8202764FDF710FBCC
:102BC000254604214046FDF74DFF38B10023012280
:102BD0006363E36323643C4B1A6087E7E86328641C
:102BE0006863EEE7022C9FD10024384FDFF8C480E1
:102BF000374D02213846FDF735FF01280BD0A4F5EB
:102C00004344284B513C9C428ED80120FFF748FB9F
:102C10000B22304B87E702213846FDF723FF0128BE
:102C200004F101040646E4D14445E2D100224FF408
:102C300070412846FDF71CFF4FF41670FDF7D0FADF
:102C400032464FF480512846FDF712FF4FF41670BC
:102C5000FDF7C6FA32464FF400512846FDF708FF4B
:102C60004FF41670FDF7BCFA32464FF48041284607
:102C7000FDF7FEFE4FF41670FDF7B2FA3246284615
:102C80004FF40041FDF7F4FE384600224FF4006196
:102C9000FDF7EEFE00224FF480613846FDF7E8FEB6
:102CA000A7E700BFCEDD0600640100200010014050
:102CB0005400002020A1070000400008340000203C
:102CC000380000203C00002048000020000801409F
:102CD000000C01405000002004400008084000089B
:102CE000054A136843F080731360044A136843F085
:102CF00001031360704700BFFCED00E0001000E02E
:102D0000064B074A1B68B3FBF2F300225843054BFE
:102D10005A605A689042FCD8704700BF10000020EB
:102D200040420F00001000E008B502464021044870
:102D3000FDF79EFEBDE808400520FFF7E1BF00BF9C
:102D4000000C0140024620210148FDF791BE00BF62
:102D5000000C01407FB500F01F008DF80E00002030
:102D60004FF47A7604AC0D4D04F8010DFFF7DCFF4B
:102D700022460DF10E01009601232846FEF782FB44
:102D800001232246FF2100962846FEF77BFB012007
:102D9000FFF7CAFF9DF80F0004B070BD08020020C5
:102DA0000023F0B564250E46174600F01F0085B0DD
:102DB0000F4C40F020008DF80F0018468DF80E30B3
:102DC000FFF7B2FF0DF10E020DF10F010095012387
:102DD0002046FEF757FB2B463A4631462046FEF783
:102DE000A8FA0120FFF7A0FF9DF80E0005B0F0BD86
:102DF00008020020002310B500F01F0086B040F04C
:102E000020008DF8170018468DF80F108DF8163039
:102E1000FFF78AFF64230C4C00930DF116020DF1AD
:102E2000170101232046FEF72DFB4FF47A73012290
:102E30000DF10F012046FEF77CFA0120FFF774FF29
:102E40009DF8160006B010BD08020020F7B51B4B18
:102E500007461C781A4B8C421B78264628BF0E4624
:102E6000EBB9A41BE4B2612302AD05F8023D0020DA
:102E7000FFF75AFF2946642301221248FEF759FA48
:102E80003246642339460F48FEF7ECFB00250D4E11
:102E90003CB90120FFF748FF204603B0F0BD0024F5
:102EA000E1E7642301220DF107013046013C8DF872
:102EB0000750E4B2FEF7D6FBEAE700BF5E00002051
:102EC000A00200200802002010B586B08DF80F0087
:102ED000002006AC04F8010DFFF726FF4FF47A73CB
:102EE000224600930DF10F0101230548FEF7CAFAAF
:102EF0000120FFF719FF9DF8170006B010BD00BFB5
:102F000008020020E220FFF7DFBFE120FFF7DCBF6F
:102F1000FF20FFF7D9BF01460520FFF76BBF052053
:102F2000FFF718BF08B50320FFF714FF0138C0B240
:102F300002288CBF0020012008BD08B50020FFF743
:102F400009FF014610F0020009D141F00201C9B2A7
:102F5000FFF750FFBDE808400520FDF741B908BD67
:102F600010B504461720FFF7F5FEC30707D424B1B8
:102F7000FFF7CEFFC0F342002070012010BD0020FB
:102F800010BD08B5FFF762FFBDE8084070210720BB
:102F9000FFF730BF13B50446CDE9002300BB134B48
:102FA00069461A78124800F0CBFB104B1A78114B87
:102FB0006946185DFFF7F4FE0F4B19780F4B185D4B
:102FC000FFF718FF0220FFF7C5FE01210C4B1B5D28
:102FD00099400143C9B20220FFF70CFF02B010BDB7
:102FE0000628FBD80128E0D00122E0E75D000020A0
:102FF0005F000020A63700085E000020A037000810
:10300000AC37000810B504460220FFF7A3FE0121EB
:10301000054B1B5DBDE81040994020EA0101C9B293
:103020000220FFF7E7BE00BFAC37000808B5FFF786
:1030300084FF0020FFF78EFE40F00101C9B200209E
:10304000FFF7D8FE70210720FFF7D4FE0120FFF71D
:1030500079FE0A49087868B1094B0A201A78FFF707
:103060009FFE1D20FFF776FE830706D5BDE80840CA
:10307000FFF74BBFFFF7C6FFF3E708BD5F00002077
:103080005D000020502337B50C4D02AC04F8013D23
:103090000020FFF749FE21464FF47A7301222846AB
:1030A000FEF747F94FF47A73012273212846FEF7A1
:1030B00040F90120FFF738FE03B030BD08020020C0
:1030C00008B51D20FFF746FE40F00401C9B21D20DF
:1030D000FFF790FE1C20FFF73DFE40F03F01C9B214
:1030E0001C20FFF787FE0122014B1A7008BD00BFAC
:1030F000A002002008B51D20FFF72CFE40F00601BD
:10310000C9B21D20FFF776FE1C20FFF723FE40F01A
:103110000301C9B21C20FFF76DFE0122014B1A709A
:1031200008BD00BFA0020020F7B517460E4600F00C
:10313000070002AC0E4D60F0570004F8010D0020AE
:10314000FFF7F2FD21464FF47A7301222846FEF77D
:10315000F0F8202F3A464FF47A7328BF20223146E8
:103160002846FEF7E6F80120FFF7DEFD03B0F0BDCC
:1031700008020020014600B13F210120FFF73ABEBE
:1031800010B504460620FFF7E5FD032C8EBF07248B
:103190006400013400F0F80198BF04F0FF042143FB
:1031A0000620BDE81040FFF725BE08B50620FFF752
:1031B000D1FDC0F3410008BD38B505460620FFF734
:1031C000C9FD022D00F0D7040B4B0ED19B2244F019
:1031D0002004214606201A70FFF70CFE0620FFF798
:1031E000B9FD231A5842584138BD012D12BF55224E
:1031F00044F008044122ECE7640000202022F8B5E6
:1032000005270024294B2A4E1A702A4B2A4D1F707D
:103210002A4B20461C7034702C70FFF793FD012060
:10322000FFF782FD3846FCF7DBFF0C212046FFF755
:10323000E1FD5F210420FFF7DDFD0320FFF7A0FF84
:103240000220FFF7B9FF08B1012333700620FFF712
:1032500081FD002604460020FFF7AEFFFFF712FFB6
:1032600000211D20FFF7C6FD00211C20FFF7C2FD35
:10327000702107202E70FFF7BDFD4C20FFF74BFE9D
:10328000FFF740FEFFF741FEFFF757FE3046FFF71E
:1032900061FD00F0FE013046FFF7ACFD601EC0B2DC
:1032A000FD288CBF00200120F8BD00BF5E0000207B
:1032B000A10200205D000020A00200205F0000208D
:1032C00008B50620FFF746FD00F02800202804D0AE
:1032D000A0F108035842584108BD022008BD000073
:1032E0000E4B82B09A6942F001029A619A6902F02B
:1032F00001020092009ADA6942F08052DA61DB69D9
:10330000074A03F080530193019B536823F0E06365
:1033100043F00073536002B0704700BF00100240DA
:1033200000000140102210B5044688B00DEB0200E9
:10333000002100F010FA23681B4A93421CD11B4B5A
:103340009A6942F400729A619A6902F400720092DA
:10335000009A9A6942F008029A619B6903F0080397
:103360000193019B01230493032304A910480593AF
:10337000FDF796FA08B010BD0E4A9342FAD10B4BF6
:103380009A6942F480629A619A6902F480620292B8
:10339000029A9A6942F008029A619B6903F0080355
:1033A0000393039B0223DEE7002401400010024048
:1033B000000C01400028014010B5044686B01022E0
:1033C000002102A800F0C7F92268164B9A4226D1C4
:1033D00003F560439A6902A942F480529A619A699E
:1033E000114802F480520092009A9A6942F0040255
:1033F0009A619B6903F004030193019BA02302934C
:103400000223039303230593FDF74AFA4023029313
:10341000002302A9044803930493FDF741FA06B080
:1034200010BD00BF003001400008014007B503682F
:10343000154A934214D1154B1B209A69022142F47C
:1034400000629A619B69002203F400630093009B71
:10345000FDF7CEF91B20FDF7FFF903B05DF804FB83
:103460000B4A9342F9D1094B1D20DA69012142F040
:103470000202DA61DB69002203F002030193019B7F
:10348000FDF7B6F91D20E6E7002C014000100240D0
:1034900000040040036807B5B3F1804F15D103F570
:1034A0000433DA691C2042F00102DA61DB69002290
:1034B00003F0010300930121009BFDF799F91C2003
:1034C000FDF7CAF903B05DF804FB074A9342F9D14E
:1034D000064BDA6942F00402DA61DB6903F00403A7
:1034E0000193019BEEE700BF00080040001002407E
:1034F000102210B5044688B000210DEB020000F048
:103500002AF92368B3F1804F2FD103F504339A6968
:10351000022442F008029A619A6904A902F00802A2
:103520000192019A9A691C4842F004029A619B69CF
:10353000059403F004030293029B40F608430794AA
:103540000493FDF7ADF94FF4004304A91348049325
:1035500005940794FDF7A4F9114A536843F0E0631A
:1035600043F44073536008B010BD0E4A9342FAD141
:103570000D4B04A99A69084842F008029A619B69B8
:1035800003F008030393039B802304930223059312
:103590000793FDF785F9E6E7000C014000080140BC
:1035A0000000014000080040001002407047FEE7A4
:1035B000FEE7FEE7FEE7704770477047FCF7FEBD89
:1035C0000220FDF75BBA0420FDF758BA0148FEF768
:1035D00080B900BF640100200148FEF77AB900BF3E
:1035E0006002002010B5174C1748FEF772F9FEF77D
:1035F00015FE236801331E2B236004D10020FEF743
:103600004FFE00232360114B1A68013A012A1A6009
:1036100004D14FF470410E48FDF72AFA0D4A1368A1
:10362000013B13606BB94FF080414B63CB630B647C
:10363000094B1B6813B90121084B19604FF49673AD
:10364000136010BD68000020E8000020500000203A
:10365000000C01400C000020440000204800002025
:103660000F4B1A6842F001021A6059680D4A0A406D
:103670005A601A6822F0847222F480321A601A6842
:1036800022F480221A605A6822F4FE025A604FF433
:103690001F029A604FF00062034B9A60704700BFB0
:1036A000001002400000FFF800ED00E0002103E000
:1036B0000B4B5B58435004310A480B4B42189A425B
:1036C000F6D30A4A02E0002342F8043B084B9A4230
:1036D000F9D3FFF7C5FF00F00FF8FEF7EDFE7047D6
:1036E000D43700080000002014000020140000203F
:1036F000A4020020FEE7000070B500250C4E0D4C22
:10370000A41BA410A54209D100F02EF800250A4EF2
:103710000A4CA41BA410A54205D170BD56F8253053
:1037200098470135EEE756F8253098470135F2E71E
:10373000CC370008CC370008CC370008D037000859
:1037400010B5431E0A44914200D110BD11F8014B3F
:1037500003F8014FF7E703460244934200D1704754
:1037600003F8011BF9E70000F8B500BFF8BC08BC7E
:103770009E467047F8B500BFF8BC08BC9E4670472F
:1037800002030405060708090A0B0C0D0E0F1010A2
:1037900002030405060708090A0B0C0D0E0F101092
:1037A0001112131415160A0B0C0D0E0F0001020353
:1037B00004050000000000000000010203040607E9
:0C37C000080900000000010203040000E2
:0437CC0035010008BB
:0437D00011010008DB
:1037D4000100000010000000010000001E000000B5
:0437E40000A24A04F1
:04000005080036AD0C
:00000001FF
