:020000040800F2
:10000000005000205D280008192700081B27000861
:100010001D2700081F2700082127000800000000F6
:10002000000000000000000000000000232700087E
:1000300025270008000000002727000829270008BE
:10004000A52800082D270008A5280008A5280008D5
:10005000A5280008A5280008A5280008A52800084C
:10006000A52800083127000849270008A52800080E
:10007000A5280008A5280008A5280008A52800082C
:10008000A5280008A5280008A5280008A52800081C
:10009000A5280008A5280008A52800086127000851
:1000A000A5280008A5280008A52800087927000829
:1000B00085270008A5280008D1270008A5280008E2
:1000C000A5280008A5280008A5280008A5280008DC
:1000D000A5280008A5280008A5280008A5280008CC
:1000E000F9270008A5280008A5280008000000003E
:1000F0000000000000000000000000000000000000
:0C01000000000000000000005FF808F1A3
:1001100010B5054C237833B9044B13B10448AFF341
:1001200000800123237010BD0C000020000000009F
:100130000029000808B5034B1BB103490348AFF37E
:10014000008008BD00000000100000200029000809
:1001500038B50E4B054618784FF47A73B3FBF0F3BD
:100160000B4A1068B0FBF3F000F0DAF9044658B916
:100170000F2D09D8024629464FF0FF3000F07AF9DA
:10018000044B20461D6038BD012038BD0000002012
:100190000800002004000020074A08B51368032067
:1001A00043F01003136000F053F90020FFF7D0FF75
:1001B00002F09CF9002008BD00200240034A044BD5
:1001C00011681B780B441360704700BF4400002087
:1001D00000000020014B1868704700BF4400002059
:1001E00038B50446FFF7F6FF0546631C1EBF044BF7
:1001F0001B78E418FFF7EEFF401B8442FAD838BDA5
:1002000000000020002373B5019390F82430012BE7
:1002100074D001234D6880F82430062D02684FEA1F
:1002200085030C6825D82B441F25566B053B9D4044
:1002300026EA050504FA03F32B435363092C4FEA1E
:1002400044038D682FD907262344D1681E3B9E4066
:1002500021EA060105FA03F30B43D360A4F110036E
:10026000012B2BD90023002280F82420184602B04D
:1002700070BD0C2D0BD82B441F25166B233B9D40C6
:1002800026EA050504FA03F32B431363D6E72B4450
:100290001F25D66A413B9D4026EA050504FA03F373
:1002A0002B43D362CAE70726116923449E4021EA03
:1002B000060105FA03F30B431361CFE7104B9A4293
:1002C00016D193681B02CDD49368102C43F400031D
:1002D0009360C7D10B4B0C4A1B68B3FBF2F20A23A5
:1002E00053430193019B002BBCD0019B013BF8E7DA
:1002F000836A43F0200383620123B4E70223B5E756
:10030000002401400800002040420F0038B5036877
:1003100004469A68D20701D4002038BD9A6822F0BA
:1003200001029A60FFF756FF054623689B68DB07CA
:10033000F2D5FFF74FFF401B0228F6D9A36A012030
:1003400043F01003A362E36A43F00103E36238BDA4
:1003500070B50446002871D0836A23B9C36280F85F
:10036000243002F0EDF82046FFF7D0FFA36A13F027
:10037000100FA36A64D1002862D1E16923F4885385
:10038000626823F0020343F002030A43A168A362F8
:10039000237BB1F5807F42EA430238D0012914BFA4
:1003A00006464FF48076257D012D07D1002B30D1F4
:1003B000A369013B46EA433545F400662368B1F57D
:1003C000807F5D6825F4694545EA06055D609E68A5
:1003D0001D4D05EA060545EA02059D6001D001298B
:1003E00020D1216901390905DD6A25F47005294309
:1003F000D9629968154B0B409A4215D10023E362EC
:10040000A36A23F0030343F00103A36270BD0E4609
:10041000C9E7A36A43F02003A362E36A43F0010340
:10042000E362CBE70021DFE7A36A23F0120343F086
:100430001003A362E36A43F00103E362012070BD8D
:1004400043F01003A362F9E7FDF7E1FFFE0E1FFF83
:10045000074A0002D36800F4E06023F4E0631B0461
:100460001B0C43F0BF6343F400330343D360704776
:1004700000ED00E0174B30B5DC68C4F30224C4F192
:100480000703251D042B28BF0423062D4FF001056B
:1004900098BF002405FA03F303F1FF3388BF033C40
:1004A0001940A14005FA04F4013C2240002842EA28
:1004B00001024FEA0212A9BF00F16040064BD2B21E
:1004C00000F56140BBBF00F00F00D2B280F80023FE
:1004D0001A5430BD00ED00E014ED00E0002808DB08
:1004E0000123420900F01F0003FA00F0014B43F81A
:1004F0002200704700E100E000280DDB01224309E3
:1005000000F01F0002FA00F0044A203342F82300F2
:10051000BFF34F8FBFF36F8F704700BF00E100E064
:100520000138B0F1807F0AD2F021064B064A5860AC
:1005300082F823100020072298601A60704701207B
:10054000704700BF10E000E000ED00E02DE9F74F3C
:1005500000242646664BDFF8A8E1DFF8A8C10A6848
:1005600032FA06F502D103B0BDE8F08F4FF0010872
:1005700008FA06F802EA080290457FD14D68122D6C
:1005800000F0AA8000F28380022D00F0A28077D8CC
:10059000002D00F08980012D00F099804FF00F09A7
:1005A000FF2A93BF824606F18045083DD0F800B08F
:1005B00092BFB500D0F804B0AD0009FA05F82BEAF7
:1005C000080804FA05F588BF00F1040A48EA0505A1
:1005D000CAF80050D1F804A01AF0805F4ED0454D03
:1005E000444FAD6926F0030845F00105BD61BD69C2
:1005F00008F1804805F00105019508F5803806F0FE
:10060000030B019D4FEA8B0BD8F8085009FA0BF940
:1006100025EA0909384DA84263D005F58065A8424E
:1006200061D005F58065A8425FD005F58065A842D8
:100630000CBF0325042505FA0BF545EA0905C8F8A2
:1006400008501D681AF4803F14BF154395431D6080
:100650005D681AF4003F14BF154395435D609D68C3
:100660001AF4801F14BF154395439D60DD681AF48A
:10067000001F14BF2A4325EA0202DA6001366EE742
:10068000032D22D0112D89D1CC68043486E71B4F6D
:10069000BD4209D012D8DFF870904D4504D009F55D
:1006A00080394D457FF47AAF8C68C4B1012C0CBF02
:1006B000C0F81080C0F8148008246FE77545F3D0A7
:1006C0006545F1D0DFF84490EBE7002466E7CC689D
:1006D00064E7CC68083461E7CC680C345EE7042436
:1006E0005CE70025A7E70125A5E70225A3E700BFF2
:1006F00000040140001002400008014000002110E9
:100700000000311000003210000011100000221013
:100710008368194214BF0120002070470AB10161AB
:1007200070470904FBE7000008B5044B5969014212
:1007300002D0586101F0B8FA08BD00BF00040140C2
:100740007047000010B5054C6369DB0304D5FFF763
:10075000F7FF4FF48033636110BD00BF0004014018
:100760002DE9F341054608B901203CE00368DB07A9
:1007700010D42B689F075DD42B68190700F1948073
:100780002B685A0700F1BE80E869002840F02C81F0
:10079000002028E08F4C636803F00C03042B07D083
:1007A000636803F00C03082B09D16368DE0306D5E8
:1007B00023689C03DDD56B68002BDAD1D4E76B6826
:1007C000B3F5803F12D1236843F480332360FFF7F1
:1007D00001FD064623689803CBD4FFF7FBFC801B82
:1007E0006428F7D9032002B0BDE8F0819BB92368E3
:1007F00023F480332360236823F480232360FFF7EE
:10080000E9FC064623689903B3D5FFF7E3FC801B98
:100810006428F7D9E6E7B3F5A02F236803D143F4A2
:1008200080232360CFE723F480332360236823F4FD
:100830008023CBE7674C636813F00C0F07D0636825
:1008400003F00C03082B10D16368DA030DD423687E
:100850009B0702D52B69012B86D123686A6923F097
:10086000F80343EAC203236086E72A695A4B6AB158
:1008700001221A60FFF7AEFC064623689F07ECD4FE
:10088000FFF7A8FC801B0228F7D9ABE71A60FFF737
:10089000A1FC0646236898077FF56EAFFFF79AFC28
:1008A000801B0228F6D99DE7AA694A4C4B4BDAB166
:1008B00001221A60FFF78EFC0646636A9B070DD57E
:1008C0004FF4FA52464B1B68B3FBF2F3019300BF9F
:1008D000019B5A1E0192002BF9D151E7FFF77AFCD8
:1008E000801B0228E9D97DE71A60FFF773FC0646F2
:1008F000636A9F077FF544AFFFF76CFC801B0228FB
:10090000F6D96FE7334CE369D80024D40127E369B3
:1009100043F08053E361E36903F080530093009B4D
:10092000304E3368D90518D5EB68012B26D1236AE0
:1009300043F001032362FFF74DFC41F28836804605
:10094000236A9B073FD5002F3FF41EAFE36923F0D6
:100950008053E36118E70027E2E7336843F48073CC
:100960003360FFF737FC80463368DA05DCD4FFF7E5
:1009700031FCA0EB08006428F6D933E7ABB9236A51
:1009800041F2883823F001032362236A23F0040331
:100990002362FFF71FFC0646236A9807D3D5FFF7AB
:1009A00019FC801B4045F7D91CE7052B236A03D1AE
:1009B00043F004032362BAE723F001032362236AAE
:1009C00023F00403B6E7FFF705FCA0EB0800B042F4
:1009D000B6D907E7001002400000424280044242BC
:1009E00008000020007000402A4B5A681C4602F0A4
:1009F0000C02082A3DD00023274E022833602BD159
:100A0000FFF7E8FB0746236899011FD42B6AB3F56B
:100A1000803F05D16268A96822F400320A4362600F
:100A2000696A62680B4322F4741213436360012302
:100A30003360FFF7CFFB054623689A013FF5A8AE68
:100A4000FFF7C8FB401B0228F6D9CBE6FFF7C2FB35
:100A5000C01B0228D7D9C5E6FFF7BCFB05462368B3
:100A60009B017FF595AEFFF7B5FB401B0228F6D939
:100A7000B8E601283FF4B7AE58682B6A00F480321C
:100A80009A427FF471AE6B6A00F47010C01A18BFFE
:100A90000120A8E6001002406000424230B51B4B26
:100AA00087B002AC03F11005224618685968083374
:100AB00003C2AB421446F7D101238DF80430022360
:100AC00013498DF805304B6803F00C02042A1BD043
:100AD000082A02D00F4807B030BDC3F3834206A8EE
:100AE0000244DB0312F8102C0BD54B680A48C3F301
:100AF0004043504306AA134413F8143CB0FBF3F0F0
:100B0000E9E706485043E6E70348E4E71829000808
:100B10000010024000127A000024F40000093D0099
:100B20002DE9F0410D46044610B90120BDE8F081E1
:100B3000454A136803F007038B4229D321688E07C7
:100B400031D4CA0744D4404A136803F007039D42D6
:100B500067D322683D4D12F0040F6ED1130706D5FE
:100B60006B68226923F4605343EAC2036B60FFF7AA
:100B700095FF6B68364AC3F30313D35CD840354BFB
:100B80001860354B1868FFF7E3FA0020BDE8F081E4
:100B9000136823F007030B431360136803F0070384
:100BA0009942C2D1CAE7294B11F0040F1EBF5A68FF
:100BB00042F4E0625A60080742BF5A6842F4605249
:100BC0005A605A68A06822F0F00202435A60B8E7FF
:100BD00062681E4E012A33681BD113F4003FA4D073
:100BE000736841F2883823F0030313437360FFF7FF
:100BF000F1FA07467368626803F00C03B3EB820FE7
:100C0000A1D0FFF7E7FAC01B4045F3D90320BDE8A8
:100C1000F081022A02D113F0007FE0E713F0020F07
:100C2000DDE7136823F007032B431360136803F019
:100C300007039D427FF479AF8BE76B68E16823F48B
:100C4000E0630B436B6089E7002002400010024024
:100C5000282900080800002004000020044B054A51
:100C60005B68C3F30223D35C034A1068D840704723
:100C7000001002403829000808000020044B054AF3
:100C80005B68C3F3C223D35C034A1068D840704743
:100C900000100240382900080800002003682DE9F0
:100CA000F341D907054620D5354CE369DA0032D443
:100CB0000127E36943F08053E361E36903F0805364
:100CC0000193019B2F4E3368DB0526D5236A13F46D
:100CD000407336D1236A6A6823F440731343236256
:100CE0001FB1E36923F08053E3612868830706D5C9
:100CF000234AA968536823F440430B43536010F020
:100D000010001BD01E4AE9685368002023F48003BA
:100D10000B43536012E00027D4E7336843F4807339
:100D20003360FFF757FA80463368D805CED4FFF713
:100D300051FAA0EB08006428F6D9032002B0BDE800
:100D4000F0816A6802F440729342C3D001200E4AD7
:100D5000236A1060002023F4407110602162D907DB
:100D6000B8D5FFF737FA41F288380646236A9A0762
:100D7000B0D4FFF72FFA801B4045F7D9DDE700BF5D
:100D8000001002400070004040044242F8B50446A2
:100D90000E4615461F4621688A6836EA020301D0CE
:100DA0000020F8BD6B1CF7D0FFF714FAC01B85427A
:100DB000F1D823685A6822F0E0025A606268B2F5FE
:100DC000827F0AD1A268B2F5004F02D0B2F5806FDF
:100DD00003D11A6822F040021A60A26AB2F5005FDD
:100DE00007D11A6822F400521A601A6842F40052BD
:100DF0001A60012384F851300023032084F8503016
:100E0000F8BD38B5134642680446B2F5827F16D164
:100E10008068B0F5004F02D0B0F5806F0FD1226826
:100E2000B0F5806F156825F04005156007D10A46BA
:100E300001212046FFF7AAFF20B9002038BD0A464D
:100E40008021F6E7636D032043F02003636538BD1E
:100E500010B513460A4680210446FFF797FF20B1DC
:100E60000320636D43F02003636510BD10B5044695
:100E7000002834D00023836290F8513003F0FF0241
:100E80001BB980F8502001F089FB0223226884F806
:100E900051301368A06823F0400313606368A169B0
:100EA0000343E06803432069034360690343E06947
:100EB0000343206A0343A06A034301F40070090C52
:100EC000034301F0040113605160D369002023F44F
:100ED0000063D3610123606584F8513010BD0120A7
:100EE00010BD2DE9F3411E4690F850300446012B09
:100EF0000D46904600F09C80012380F85030FFF7AB
:100F000069F9074694F85100C0B2012840F08E807C
:100F1000002D5ED0B8F1000F5BD00323002084F8D1
:100F20005130A3686065A063A4F83680A087E0878D
:100F3000606420642068B3F5004F08BF0368256330
:100F400008BF43F48043A4F8348008BF03600368FB
:100F50005B065EBF036843F040030360E368B3F5DC
:100F6000006F63683ED113B1B8F1010F07D135F8B6
:100F7000023BC3602563E38E013B9BB2E386E38EB5
:100F80009BB2A3B93A4631462046FFF761FF0028DD
:100F900049D1A36833B901932368DA6801929B6849
:100FA0000193019B606D003018BF012011E02268A1
:100FB0009368980705D5236B33F8021BD160236330
:100FC000D9E7FFF707F9C01BB042D8D3711CD6D0C0
:100FD0000320012384F85130002384F8503002B0FC
:100FE000BDE8F08113B1B8F1010F08D12B7803737C
:100FF000236B01332363E38E013B9BB2E386E38ED5
:101000009BB2002BBED023689A68920703D5226B4F
:1010100012781A73ECE7FFF7DDF8C01B8642EED8B2
:10102000731CECD0D4E720236365B2E70220D0E73D
:101030000220D4E72DE9F7431E4690F850300446CD
:10104000012B0D4691460A9F00F0E280012380F8B3
:101050005030FFF7BFF894F851308046DBB2012BD7
:1010600061680AD0B1F5827F40F0D080A068002886
:1010700040F0CC80042B40F0C980002D00F0C480EB
:10108000B9F1000F00F0C080002E00F0BD8094F890
:101090005130C4F83890042B1CBF052384F851301C
:1010A00000236365236463642368E687E6861A6821
:1010B000A687500658BF1A68256358BF42F0400201
:1010C000A68658BF1A60E268B2F5006F58D109B120
:1010D000012E07D135F8022BDA60E38E2563013B40
:1010E0009BB2E3860125E38E9BB2ABB9E38F9BB243
:1010F00093B9424639462046FFF7AAFE002840F041
:101100008180A368002B32D123680190DA680192B4
:101110009B680193019B2AE02268936899070DD58B
:10112000E38E9BB253B14DB10025236B33F8021B04
:10113000D1602363E38E013B9BB2E3869368DB07B8
:101140000CD5E38F9BB24BB10125D268A36B23F87A
:10115000022BA363E38F013B9BB2E387FFF73AF8CF
:10116000A0EB08008742BED87E1CBCD00320012320
:1011700084F85130002384F8503003B0BDE8F08388
:1011800009B1012E08D12A781A73236B0133236326
:10119000E38E013B9BB2E3860125E38E9BB21BB934
:1011A000E38F9BB2002BA4D02268936898070ED5DA
:1011B000E38E9BB25BB155B10025236B1B78137393
:1011C000236B01332363E38E013B9BB2E3862268EA
:1011D0009368D9070DD5E38F9BB253B10125D2682F
:1011E000A36B1A70A36B0133A363E38F013B9BB224
:1011F000E387FEF7EFFFA0EB08008742CDD87B1C0A
:10120000CBD0B3E7202363650120B0E70220AEE72F
:101210000220B2E72DE9F3411D4643680446B3F5C9
:10122000827F884617460CD1836853B9042380F81F
:101230005130134600950A46FFF7FCFE02B0BDE8A8
:10124000F08194F85030012B79D0012384F850308C
:10125000FEF7C0FF064694F85100C0B201286CD1D9
:10126000B8F1000F57D0002F55D0042384F8513027
:10127000002363652363E787A386E38623646364AF
:10128000A368A787B3F5004F2368C4F8388002BF6E
:101290001A6822F480421A601A6857065EBF1A68FC
:1012A00042F040021A60E368F3B1E38F9BB2FBB1F6
:1012B00023689A68D20735D5DA68A36B23F8022B26
:1012C000A363E38F013B9BB2E387EEE723689A6851
:1012D000D00718D51B7BA26B1370A36B0133A363DC
:1012E000E38F013B9BB2E387E38F9BB2002BEDD1F1
:1012F000324629462046FFF784FDD8B9606D00309C
:1013000018BF012007E0FEF765FF801B8542EBD880
:10131000691CE9D00320012384F85130002384F8AC
:1013200050308BE7FEF756FF801B8542BDD86B1C03
:10133000BBD0EFE720236365E0E70220EBE7022064
:101340007CE70000036A70B523F001030362036ABF
:10135000446882690D6822F073022A438D6823F085
:1013600002032B430A4DA8420BD1CD6823F008039A
:101370002B438E694D6924F44074354323F00403F4
:101380002C43446082614A684263036270BD00BFBF
:10139000002C0140036A70B523F480730362036A72
:1013A0004468C2690D6822F073022A438D6823F4F1
:1013B000007343EA05230B4DA8420DD1CD6823F4F9
:1013C000006343EA05238E694D6924F44054354394
:1013D00023F4806344EA05144460C2614A68C2632E
:1013E000036270BD002C0140036A30B523F48053C2
:1013F0000362036A4468C2690D6822F4E64242EA65
:1014000005228D6823F4005343EA0533064DA842B4
:1014100002BF4D6924F4804444EA85144460C261EB
:101420004A680264036230BD002C0140022380F848
:101430003D3003689A6802F00702062A1EBF1A6848
:1014400042F001021A60012380F83D30002070470D
:1014500003680020DA6842F00102DA609A6802F05C
:101460000702062A1EBF1A6842F001021A6070477E
:101470000368DA6822F00102DA6041F21112196A97
:10148000114208D140F24442196A114202BF1A685F
:1014900022F001021A6000207047704770477047C1
:1014A00070477047036810B51A69044691070ED556
:1014B000DA6892070BD56FF002021A6101229B696C
:1014C00002779B0777D0FFF7EAFF00232377236893
:1014D0001A69500710D5DA6851070DD56FF004026C
:1014E0001A6102229B69227713F4407F204668D05C
:1014F000FFF7D5FF0023237723681A6912070FD55A
:10150000DA6810070CD56FF008021A610422DB6953
:101510002277990720465AD0FFF7C1FF002323778F
:1015200023681A69D20610D5DA68D0060DD56FF097
:1015300010021A610822DB69227713F4407F2046EB
:101540004BD0FFF7ACFF0023237723681A69D1073C
:1015500008D5DA68D20705D56FF0010220461A6176
:10156000FFF79BFF23681A69100608D5DA68110691
:1015700005D56FF0800220461A6100F026F9236835
:101580001A69520608D5DA68500605D56FF0400290
:1015900020461A61FFF785FF23681A69910622D554
:1015A000DA6892061FD56FF020022046BDE8104091
:1015B0001A6100F009B9FFF771FF2046FFF770FFCD
:1015C00083E7FFF76BFF2046FFF76AFF92E7FFF71D
:1015D00065FF2046FFF764FFA0E7FFF75FFF2046A7
:1015E000FFF75EFFAFE710BD1A4A036890420AD0CA
:1015F000B0F1804F07D0A2F59432904203D002F5AB
:101600008062904215D14A6823F070031343114A57
:1016100090420AD0B0F1804F07D0A2F594329042A8
:1016200003D002F58062904203D1CA6823F440736C
:1016300013434A6923F08003134303608B68C3623A
:101640000B688362034B984204BF0B690363012359
:1016500043617047002C014010B50446A0B190F8DA
:101660003D3003F0FF021BB980F83C2000F0D0FFB2
:101670000223206884F83D30211DFFF7B5FF0123C8
:10168000002084F83D3010BD012010BD036A70B504
:1016900023F010030362036A446882690D6822F430
:1016A000E64242EA05228D6823F0200343EA05134F
:1016B0000B4DA8420DD1CD6823F0800343EA0513FA
:1016C0008E694D6924F44064354323F0400344EAB5
:1016D0008504446082614A688263036270BD00BF12
:1016E000002C014038B590F83C300446012B4FF0F7
:1016F000020018D0012384F83D0084F83C301D46D8
:101700000C2A0BD8DFE802F0070A0A0A100A0A0AB4
:10171000140A0A0A18002068FFF714FE002084F853
:101720003D5084F83C0038BD2068FFF7AFFFF5E777
:101730002068FFF72FFEF1E72068FFF755FEEDE781
:1017400090F83C3030B5012B4FF0020314D0046800
:1017500080F83D306268A3680D68496822F0700225
:1017600023F080030B432A436260A360012380F8C7
:101770003D30002380F83C30184630BD90F83C30B6
:10178000012B1FD0CB688A6823F4407313434A6847
:1017900023F4806313430A6823F4006313430A6944
:1017A00023F4805313434A6923F400531343CA6953
:1017B00023F48043134302685364002380F83C30D1
:1017C00018467047022070477047704738B5054685
:1017D0000368C1681A69192422F440520A431A6145
:1017E00082680069D9680243686921F4B05121F028
:1017F0000C0102430A43DA605A69A96922F4407273
:101800000A435A610D4A934214D1FFF737FA6043F5
:101810006C686422A400B0FBF4F0B0FBF2F402FBAD
:1018200014031B013233B3FBF2F3296803EB0413F7
:101830008B6038BDFFF712FAE9E700BF00380140BE
:1018400010B5044640B390F8393003F0FF021BB9DD
:1018500080F8382000F026FF2423226884F83930ED
:10186000D368204623F40053D360FFF7AFFF23680B
:1018700000201A6922F490421A615A6922F02A0261
:101880005A61DA6842F40052DA602023E06384F897
:10189000393084F83A3010BD012010BD282210B52F
:1018A00094B00DEB0200002101F022F81422002177
:1018B0000DEB020001F01CF81022002101A801F03C
:1018C00017F84FF48033022401220B934FF40031B8
:1018D00012934FF4E0130AA80A920C910E921393FC
:1018E0001194FEF73DFF0F234FF480620593002310
:1018F000214605A80793089209930694FFF710F96B
:101900004FF4004301A801940393FFF7C7F914B003
:1019100010BD0000000000002DE9F04F97B0FEF769
:101920003BFCFFF7BBFF102200210EA800F0E0FFF8
:10193000AF4B00249A690126022542F010024FF4B1
:1019400060489A619A694FF4604102F01002019276
:10195000019A9A69A74842F020029A619A69A64FB3
:1019600002F020020292029A9A6941F61F4942F05F
:1019700004029A619A6942F20F7B02F00402039218
:10198000039A9A6942F2107A42F008029A619B69BE
:10199000002203F008030493049BFEF7BFFE00221D
:1019A00064219648FEF7BAFE0EA99248109411954C
:1019B000CDF838800F96FEF7C9FD914B0EA99148DE
:1019C0000E950F931094FEF7C1FD64230EA98B486A
:1019D0000E93109411950F96FEF7B8FD4FF44073D7
:1019E0000EA988480E930F941096FEF7AFFD4FF4A2
:1019F00000430EA983480E930F971096FEF7A6FD9D
:101A000098230EA97D480E930F971096FEF79EFD22
:101A1000224629460920FEF72DFD0920FEF75EFD2E
:101A2000224629460A20FEF725FD0A20FEF756FD2C
:101A3000224629461720FEF71DFD1720FEF74EFD12
:101A4000294622462820FEF715FD2820FEF746FDF0
:101A50004FF482736C486D4A6D4D80E80C004FF472
:101A6000007383611823C3610A238460C460046126
:101A70004461046244628462C362FFF7F7F9654B14
:101A800028462B604FF46023AC602C732C75EB61FF
:101A90006C600E940F9410942E61FEF759FC09238C
:101AA0000EA928460E9310940F96FEF7ABFB4FF449
:101AB000E13359485949846080E80A000C23C46026
:101AC000436104618461C461FFF7BAFE1C222146B0
:101AD0000DEB02000594069400F00AFF2022214637
:101AE0000EA800F005FF4E4D4E4B284685E8080233
:101AF0004EF65F23AC60EB602C616C61AC61FFF76C
:101B0000ABFD05A9284605940694FFF719FE224669
:101B100007A928460794089409940A940B940C94F6
:101B20000D94FFF7DFFD4FF400530EA928461393E1
:101B30000E940F941094119412941594FFF71EFEB6
:101B40001C2221460EA80794089400F0D1FE4FF005
:101B50008043354D354F284685E80802AC602C613E
:101B6000AC61C5F80CB0FFF777FD07A928460794CC
:101B70000894FFF7E5FD22460EA928460E9410941E
:101B80001294CDF83CA0FFF7ADFD1C2221460EA813
:101B90000794089400F0ACFE254B384687E808020D
:101BA000BC603C61BC61C7F80CB0FFF755FD07A9EC
:101BB000384607940894FFF7C3FD22460EA938461D
:101BC0000E9410941294CDF83CA0FFF78BFD00F01A
:101BD000C9F900F028FB00F027FC304600F0E6FBD6
:101BE00000F0C2FB00F0A6FB132000F018FB21E080
:101BF000001002400010014000003110000C0140B4
:101C000000001110000801400401002000300140D4
:101C100088000020002801409C0100200044004072
:101C2000C4000020002C01405C010020480000207E
:101C3000000800401AA1D1E9000100F043FB032095
:101C400000F0BAFB00F02CF9224641461048FEF79E
:101C500065FD2846FFF7EAFB0E4C2846FFF7F8FB28
:101C600008210D482660FEF753FD08B900F076F80C
:101C700000F0BEF80125094E4FF400413046FEF752
:101C800047FD0028F8D1256000F068F8F4E700BFB0
:101C90000010014028000020000C01400008014015
:101CA000E2F0F0E8E800000010B504462948FFF72C
:101CB000DFFB082C1DD121462748FEF729FD30B94E
:101CC00044F24442032143F2333000F0FFF808218C
:101CD0002148FEF71DFD012806D145F2555203218A
:101CE00043F2333000F0F2F8BDE810401948FFF736
:101CF000AFBB802C15D121461748FEF709FD30B93E
:101D000044F24442012143F2333000F0DFF88021F5
:101D10001148FEF7FDFC01280146E5D145F2555278
:101D2000DEE7102CE0D121460B48FEF7F1FC30B97C
:101D300044F24442022143F2333000F0C7F810214C
:101D40000548FEF7E5FC0128CED145F255520221A7
:101D5000C6E700BF5C010020000C01402DE9F04106
:101D600001224FF400411C48FEF7D8FC41F2111249
:101D70001A4B1B481A80FFF76BFB1A4CDFF8588090
:101D8000194E164F3568012D0AD01548FFF770FB24
:101D9000BDE8F04100224FF400410F48FEF7BEBC01
:101DA0001421384600F06CFA00F0F8FA0028E9D067
:101DB0000621204600F07DFA2378AA2BE2D10023E9
:101DC0002A464FF4004140463360FEF7A7FC6268A4
:101DD000064B1A60D4E700BF00100140DC01002070
:101DE00048000020B8000020280000200002002049
:101DF0002DE9F0410024244B244D01224FF40051E1
:101E000023481C602C606C60AC60FEF787FC44F2D9
:101E1000444306261F4FDFF880803B80142138465C
:101E200000F02EFA00F0BAFAA8B106211A4800F024
:101E300040FA98F80030CC2B0DD1D8F804302A683D
:101E4000934208D06A68934205D0AA6893421CBFA7
:101E500045F824300134013EE0D1104B07201C60CE
:101E6000FEF73CFB0920FEF739FB1720FEF736FB97
:101E70002820FEF733FB3246BDE8F0414FF4005115
:101E80000348FEF74BBC00BF3000002004020020D6
:101E900000100140DC010020B80000202C000020D0
:101EA000084B84B01A6801925A6802929A680392A9
:101EB0001968054A5160596891609B68D36004B005
:101EC000704700BFE8F7FF1FDC0100202DE9F04755
:101ED0001F4F388039827A824FF4804101221D4899
:101EE000FEF71CFC1C4B1A680AB901221A60002676
:101EF00035461C68DFF86890DFF860804CB9174BF6
:101F000022461C704FF48041BDE8F0471148FEF7AF
:101F100005BC59F82430DFF838A0BB610DB1013C95
:101F2000ECE71421504600F0ABF900F037FA48B165
:101F30000621404600F0BDF998F80050A5F1AA032B
:101F40005D425D410136032E08BF0125E6E700BF73
:101F5000DC010020001001402C000020B80000200F
:101F600004020020054A136843F080731360044A9A
:101F7000136843F001031360704700BFFCED00E0FD
:101F8000001000E0064B074A1B68B3FBF2F3002287
:101F90005843054B5A605A689042FCD8704700BFBE
:101FA0000800002040420F00001000E008B5024683
:101FB00040210448FEF7B2FBBDE808400520FFF7CA
:101FC000E1BF00BF000C0140024620210148FEF79E
:101FD000A5BB00BF000C01407FB500F01F008DF8CD
:101FE0000E0000204FF47A7604AC0D4D04F8010D7C
:101FF000FFF7DCFF22460DF10E0100960123284673
:10200000FFF718F801232246FF2100962846FFF724
:1020100011F80120FFF7CAFF9DF80F0004B070BD52
:10202000040100200023F0B564250E46174600F099
:102030001F0085B00F4C40F020008DF80F001846AF
:102040008DF80E30FFF7B2FF0DF10E020DF10F010A
:10205000009501232046FEF7EDFF2B463A46314618
:102060002046FEF73EFF0120FFF7A0FF9DF80E007F
:1020700005B0F0BD04010020002310B500F01F00E2
:1020800086B040F020008DF8170018468DF80F102C
:102090008DF81630FFF78AFF64230C4C00930DF186
:1020A00016020DF1170101232046FEF7C3FF4FF47E
:1020B0007A7301220DF10F012046FEF712FF012075
:1020C000FFF774FF9DF8160006B010BD0401002054
:1020D000F0B5002485B01C4B8DF80E201B4A1B78F0
:1020E00012788B421D4607468DF80D4028BF0D46DD
:1020F0000AB95C1BE4B264260020FFF757FF009684
:1021000001230DF10D020DF10E011148FEF792FFB2
:1021100033462A4639460E48FEF7E3FE00250C4EAC
:1021200034B90120FFF742FF9DF80D0005B0F0BD66
:10213000642301220DF10F013046013C8DF80F5050
:10214000E4B2FEF7CEFEEBE73500002010020020DF
:1021500004010020F7B51B4B07461C781A4B8C4234
:102160001B78264628BF0E46EBB9A41BE4B26123B8
:1021700002AD05F8023D0020FFF718FF2946642351
:1021800001221248FEF7ADFE3246642339460F485D
:10219000FFF740F800250D4E3CB90120FFF706FF80
:1021A000204603B0F0BD0024E1E7642301220DF1D5
:1021B00007013046013C8DF80750E4B2FFF72AF8DA
:1021C000EAE700BF350000201002002004010020D3
:1021D00010B586B08DF80F00002006AC04F8010D94
:1021E000FFF7E4FE4FF47A73224600930DF10F01DE
:1021F00001230548FEF71EFF0120FFF7D7FE9DF8DB
:10220000170006B010BD00BF04010020E220FFF758
:10221000DFBFE120FFF7DCBFFF20FFF7D9BF01469A
:102220000520FFF729BF08B50320FFF7D5FE0138C9
:10223000C0B202288CBF0020012008BD08B50020D4
:10224000FFF7CAFE014610F0020009D141F0020179
:10225000C9B2FFF711FFBDE808400520FDF7C0BF78
:1022600008BD10B51C46002A14BFB022A022FFF7FB
:102270002FFF24B1BDE810400120FFF7A5BE10BD1F
:1022800008B501231A46FFF7ECFFFFF7C5FF10F072
:10229000300FFAD00020FFF797FE70210720FFF7DC
:1022A000EBFEC30603D5FFF7B4FF002008BD0120F5
:1022B00008BD08B5FFF74EFFBDE8084070210720B4
:1022C000FFF7DABE37B502AC64E90201084D2146DA
:1022D0002A780A20FFF7A6FE2A7821461020FFF769
:1022E000A1FE044B11201978FFF7C6FE03B030BDE4
:1022F0003400002035000020502337B50C4D02ACCF
:1023000004F8013D0020FFF751FE21464FF47A7397
:1023100001222846FEF7E5FD4FF47A73012273216E
:102320002846FEF7DEFD0120FFF740FE03B030BD7A
:102330000401002008B51D20FFF74EFE40F0040107
:10234000C9B21D20FFF798FE1C20FFF745FE40F0A4
:102350003F01C9B21C20FFF78FFE0122014B1A700A
:1023600008BD00BF1002002008B51D20FFF734FE95
:1023700040F00601C9B21D20FFF77EFE1C20FFF7CA
:102380002BFE40F00301C9B21C20FFF775FE0122AD
:10239000014B1A7008BD00BF1002002008B51720BD
:1023A000FFF71AFEC04300F0010008BD014600B16E
:1023B0003F210120FFF760BE10B504460620FFF75D
:1023C0000BFE032C8EBF07246400013400F0F801DB
:1023D00098BF04F0FF0421430620BDE81040FFF73A
:1023E0004BBE000038B505460620FFF7F5FD022D6F
:1023F00000F0D7040B4B0ED19B2244F02004214661
:1024000006201A70FFF738FE0620FFF7E5FD231AB5
:102410005842584138BD012D12BF552244F00804DE
:102420004122ECE73B0000202022F8B505270024DC
:10243000294B2A4E1A702A4B2A4D1F702A4B2046D0
:102440001C7034702C70FFF7BFFD0120FFF7AEFD4C
:102450003846FDF7C5FE0C212046FFF70DFE5F2133
:102460000420FFF709FE0320FFF7A6FF0220FFF775
:10247000B9FF08B1012333700620FFF7ADFD002638
:1024800004460020FFF7AEFFFFF736FF00211D20B6
:10249000FFF7F2FD00211C20FFF7EEFD7021072061
:1024A0002E70FFF7E9FD4C20FFF7B9FEFFF7AEFEF7
:1024B000FFF7AFFEFFF7C2FE3046FFF78DFD00F0DD
:1024C000FE013046FFF7D8FD601EC0B2FD288CBF6C
:1024D00000200120F8BD00BF3500002011020020BF
:1024E000340000201002002036000020124B07B5F7
:1024F0009A69072142F001029A619A69012002F06B
:1025000001020092009ADA6942F08052DA61DB69D6
:10251000002203F080530193019BFDF7ABFF0120E4
:10252000FDF7DCFF054A536823F0E06343F00073D6
:10253000536003B05DF804FB00100240000001404E
:1025400010B5044686B01022002102A800F0D0F990
:102550002268104B9A421AD103F568439A6902A97E
:1025600042F480629A619A690B4802F48062009298
:10257000009A9A6942F008029A619B6903F0080385
:102580000193019B032302930393FDF7DFFF06B042
:1025900010BD00BF00280140000C014010B50446EA
:1025A00086B01022002102A800F0A2F92268164B82
:1025B0009A4226D103F560439A6902A942F48052F7
:1025C0009A619A69114802F480520092009A9A69BD
:1025D00042F004029A619B6903F004030193019B9A
:1025E000A02302930223039303230593FDF7AEFF79
:1025F00040230293002302A9044803930493FDF7A8
:10260000A5FF06B010BD00BF00300140000801402A
:102610001FB50368204A934214D1204B1B209A69AE
:10262000052142F400629A619B69002203F4006371
:102630000193019BFDF71EFF1B20FDF74FFF05B027
:102640005DF804FBB3F1804F11D103F50433DA696F
:102650001C2042F00102DA610022DB69114603F01E
:1026600001030293029BFDF705FF1C20E5E70C4ADE
:102670009342E4D1094B1E20DA69062142F004029C
:10268000DA61DB69002203F004030393039BFDF787
:10269000F1FE1E20D1E700BF002C014000100240D7
:1026A0000008004010B5044686B01022002102A8A0
:1026B00000F01EF92268164B9A4226D103F5E63344
:1026C000DA6902A942F40032DA61DA69114802F4E7
:1026D00000320092009A9A6942F004029A619B6962
:1026E00003F004030193019B042302930223039349
:1026F00003230593FDF72AFF08230293002302A971
:10270000044803930493FDF721FF06B010BD00BFFA
:1027100000440040000801407047FEE7FEE7FEE786
:10272000FEE7704770477047FDF748BDFEF70AB8EF
:1027300008B50448FEF79CFEBDE808400820FDF7F8
:10274000F3BF00BF5C01002008B50448FEF790FE0F
:10275000BDE808401020FDF7E7BF00BF5C01002086
:1027600008B50448FEF784FEBDE808408020FDF768
:10277000DBBF00BF5C0100200148FEF793BE00BF35
:10278000C400002010B50F4C236801330A2B2360CE
:1027900012D10720FDF7B0FE0920FDF7ADFE17208E
:1027A000FDF7AAFE2820FDF7A7FE002301222360E3
:1027B000054B1A60FFF71CFBBDE810400348FEF70D
:1027C00071BE00BF40000020300000205C010020EE
:1027D000064A074813680133282B136001BF002302
:1027E000044913600B60FEF75DBE00BF3C00002093
:1027F000480000202800002008B50448FEF738FEF5
:10280000BDE808404FF40040FDF78EBF5C0100209A
:102810000F4B1A6842F001021A6059680D4A0A40CB
:102820005A601A6822F0847222F480321A601A68A0
:1028300022F480221A605A6822F4FE025A604FF491
:102840001F029A604FF00062034B9A60704700BF0E
:10285000001002400000FFF800ED00E0002103E05E
:102860000B4B5B58435004310A480B4B42189A42B9
:10287000F6D30A4A02E0002342F8043B084B9A428E
:10288000F9D3FFF7C5FF00F00FF8FFF745F87047E1
:1028900048290008000000200C0000200C00002047
:1028A00014020020FEE7000070B500250C4E0D4C10
:1028B000A41BA410A54209D100F022F800250A4E5D
:1028C0000A4CA41BA410A54205D170BD56F82530B2
:1028D00098470135EEE756F8253098470135F2E77D
:1028E0004029000840290008402900084429000820
:1028F00003460244934200D1704703F8011BF9E7F5
:10290000F8B500BFF8BC08BC9E467047F8B500BFDC
:08291000F8BC08BC9E467047AC
:1029180002030405060708090A0B0C0D0E0F101018
:102928000000000000000000010203040607080977
:0829380000000000010203048D
:042940003501000855
:042944001101000875
:0C29480001000000100000000024F4005A
:040000050800285D6A
:00000001FF
