:020000040800F2
:1000000000500020992800085D2700085F2700089D
:10001000612700086327000865270008000000002A
:10002000000000000000000000000000672700083A
:1000300069270008000000006B2700086D270008F2
:10004000E128000871270008E1280008E1280008DD
:10005000E1280008E1280008E1280008E12800085C
:10006000E1280008752700088D270008E12800080E
:10007000E1280008E1280008E1280008E12800083C
:10008000E1280008E1280008E1280008E12800082C
:10009000E1280008E1280008E1280008A527000859
:1000A000E1280008E1280008E1280008BD27000831
:1000B000C9270008E12800080D280008E1280008E9
:1000C000E1280008E1280008E1280008E1280008EC
:1000D000E1280008E1280008E1280008E1280008DC
:1000E00035280008E1280008E12800080000000089
:1000F0000000000000000000000000000000000000
:0C01000000000000000000005FF808F1A3
:1001100010B5054C237833B9044B13B10448AFF341
:1001200000800123237010BD10000020000000009B
:100130003C29000808B5034B1BB103490348AFF342
:10014000008008BD00000000140000203C290008C9
:1001500038B50E4B054618784FF47A73B3FBF0F3BD
:100160000B4A1068B0FBF3F000F0C6F9044658B92A
:100170000F2D09D8024629464FF0FF3000F07AF9DA
:10018000044B20461D6038BD012038BD0000002012
:100190000C00002004000020074A08B51368032063
:1001A00043F01003136000F053F90020FFF7D0FF75
:1001B00002F0BEF9002008BD00200240034A044BB3
:1001C00011681B780B441360704700BF4400002087
:1001D00000000020014B1868704700BF4400002059
:1001E00038B50446FFF7F6FF0546631C1EBF044BF7
:1001F0001B78E418FFF7EEFF401B8442FAD838BDA5
:1002000000000020002373B5019390F82430012BE7
:1002100074D001234D6880F82430062D02684FEA1F
:1002200085030C6825D82B441F25566B053B9D4044
:1002300026EA050504FA03F32B435363092C4FEA1E
:1002400044038D682FD907262344D1681E3B9E4066
:1002500021EA060105FA03F30B43D360A4F110036E
:10026000012B2BD90023002280F82420184602B04D
:1002700070BD0C2D0BD82B441F25166B233B9D40C6
:1002800026EA050504FA03F32B431363D6E72B4450
:100290001F25D66A413B9D4026EA050504FA03F373
:1002A0002B43D362CAE70726116923449E4021EA03
:1002B000060105FA03F30B431361CFE7104B9A4293
:1002C00016D193681B02CDD49368102C43F400031D
:1002D0009360C7D10B4B0C4A1B68B3FBF2F20A23A5
:1002E00053430193019B002BBCD0019B013BF8E7DA
:1002F000836A43F0200383620123B4E70223B5E756
:10030000002401400C00002040420F0038B5036873
:1003100004469A68D20701D4002038BD9A6822F0BA
:1003200001029A60FFF756FF054623689B68DB07CA
:10033000F2D5FFF74FFF401B0228F6D9A36A012030
:1003400043F01003A362E36A43F00103E36238BDA4
:1003500070B50446002871D0836A23B9C36280F85F
:10036000243002F00FF92046FFF7D0FFA36A13F004
:10037000100FA36A64D1002862D1E16923F4885385
:10038000626823F0020343F002030A43A168A362F8
:10039000237BB1F5807F42EA430238D0012914BFA4
:1003A00006464FF48076257D012D07D1002B30D1F4
:1003B000A369013B46EA433545F400662368B1F57D
:1003C000807F5D6825F4694545EA06055D609E68A5
:1003D0001D4D05EA060545EA02059D6001D001298B
:1003E00020D1216901390905DD6A25F47005294309
:1003F000D9629968154B0B409A4215D10023E362EC
:10040000A36A23F0030343F00103A36270BD0E4609
:10041000C9E7A36A43F02003A362E36A43F0010340
:10042000E362CBE70021DFE7A36A23F0120343F086
:100430001003A362E36A43F00103E362012070BD8D
:1004400043F01003A362F9E7FDF7E1FFFE0E1FFF83
:10045000074A0002D36800F4E06023F4E0631B0461
:100460001B0C43F0BF6343F400330343D360704776
:1004700000ED00E0174B30B5DC68C4F30224C4F192
:100480000703251D042B28BF0423062D4FF001056B
:1004900098BF002405FA03F303F1FF3388BF033C40
:1004A0001940A14005FA04F4013C2240002842EA28
:1004B00001024FEA0212A9BF00F16040064BD2B21E
:1004C00000F56140BBBF00F00F00D2B280F80023FE
:1004D0001A5430BD00ED00E014ED00E0002808DB08
:1004E0000123420900F01F0003FA00F0014B43F81A
:1004F0002200704700E100E00138B0F1807F0AD2AD
:10050000F021064B064A586082F82310002007228B
:1005100098601A6070470120704700BF10E000E04B
:1005200000ED00E02DE9F74F00242646664BDFF88A
:10053000A8E1DFF8A8C10A6832FA06F502D103B0D3
:10054000BDE8F08F4FF0010808FA06F802EA080249
:1005500090457FD14D68122D00F0AA8000F2838073
:10056000022D00F0A28077D8002D00F08980012DA7
:1005700000F099804FF00F09FF2A93BF824606F1E1
:100580008045083DD0F800B092BFB500D0F804B067
:10059000AD0009FA05F82BEA080804FA05F588BF4A
:1005A00000F1040A48EA0505CAF80050D1F804A091
:1005B0001AF0805F4ED0454D444FAD6926F00308D8
:1005C00045F00105BD61BD6908F1804805F00105F0
:1005D000019508F5803806F0030B019D4FEA8B0B5F
:1005E000D8F8085009FA0BF925EA0909384DA8424C
:1005F00063D005F58065A84261D005F58065A84205
:100600005FD005F58065A8420CBF0325042505FAD7
:100610000BF545EA0905C8F808501D681AF4803F33
:1006200014BF154395431D605D681AF4003F14BF65
:10063000154395435D609D681AF4801F14BF1543F0
:1006400095439D60DD681AF4001F14BF2A4325EA14
:100650000202DA6001366EE7032D22D0112D89D116
:10066000CC68043486E71B4FBD4209D012D8DFF8AE
:1006700070904D4504D009F580394D457FF47AAF2F
:100680008C68C4B1012C0CBFC0F81080C0F8148075
:1006900008246FE77545F3D06545F1D0DFF8449045
:1006A000EBE7002466E7CC6864E7CC68083461E7D0
:1006B000CC680C345EE704245CE70025A7E701253D
:1006C000A5E70225A3E700BF000401400010024097
:1006D000000801400000211000003110000032101D
:1006E00000001110000022108368194214BF01207D
:1006F000002070470AB1016170470904FBE7C36835
:100700000B4214BF416101617047000008B5044B02
:100710005969014202D0586101F0D4FA08BD00BF06
:10072000000401407047000010B5054C6369DB030D
:1007300004D5FFF7F7FF4FF48033636110BD00BFAE
:10074000000401402DE9F341054608B901203CE0D1
:100750000368DB0710D42B689F075DD42B6819074B
:1007600000F194802B685A0700F1BE80E8690028E8
:1007700040F02C81002028E08F4C636803F00C03CC
:10078000042B07D0636803F00C03082B09D16368BE
:10079000DE0306D523689C03DDD56B68002BDAD118
:1007A000D4E76B68B3F5803F12D1236843F48033FC
:1007B0002360FFF70FFD064623689803CBD4FFF7AD
:1007C00009FD801B6428F7D9032002B0BDE8F08141
:1007D0009BB9236823F480332360236823F48023A8
:1007E0002360FFF7F7FC064623689903B3D5FFF7AC
:1007F000F1FC801B6428F7D9E6E7B3F5A02F236846
:1008000003D143F480232360CFE723F480332360B4
:10081000236823F48023CBE7674C636813F00C0F45
:1008200007D0636803F00C03082B10D16368DA0368
:100830000DD423689B0702D52B69012B86D1236831
:100840006A6923F0F80343EAC203236086E72A6952
:100850005A4B6AB101221A60FFF7BCFC06462368B6
:100860009F07ECD4FFF7B6FC801B0228F7D9ABE753
:100870001A60FFF7AFFC0646236898077FF56EAF56
:10088000FFF7A8FC801B0228F6D99DE7AA694A4C0D
:100890004B4BDAB101221A60FFF79CFC0646636AF3
:1008A0009B070DD54FF4FA52464B1B68B3FBF2F38E
:1008B000019300BF019B5A1E0192002BF9D151E711
:1008C000FFF788FC801B0228E9D97DE71A60FFF753
:1008D00081FC0646636A9F077FF544AFFFF77AFC09
:1008E000801B0228F6D96FE7334CE369D80024D483
:1008F0000127E36943F08053E361E36903F0805328
:100900000093009B304E3368D90518D5EB68012B56
:1009100026D1236A43F001032362FFF75BFC41F217
:1009200088368046236A9B073FD5002F3FF41EAFD1
:10093000E36923F08053E36118E70027E2E73368B7
:1009400043F480733360FFF745FC80463368DA0573
:10095000DCD4FFF73FFCA0EB08006428F6D933E7AE
:10096000ABB9236A41F2883823F001032362236A7A
:1009700023F004032362FFF72DFC0646236A980741
:10098000D3D5FFF727FC801B4045F7D91CE7052B83
:10099000236A03D143F004032362BAE723F001037F
:1009A0002362236A23F00403B6E7FFF713FCA0EBEE
:1009B0000800B042B6D907E70010024000004242EA
:1009C000800442420C000020007000402A4B5A680C
:1009D0001C4602F00C02082A3DD00023274E0228B4
:1009E00033602BD1FFF7F6FB0746236899011FD42C
:1009F0002B6AB3F5803F05D16268A96822F4003202
:100A00000A436260696A62680B4322F474121343FA
:100A1000636001233360FFF7DDFB054623689A011D
:100A20003FF5A8AEFFF7D6FB401B0228F6D9CBE670
:100A3000FFF7D0FBC01B0228D7D9C5E6FFF7CAFBDA
:100A4000054623689B017FF595AEFFF7C3FB401B6E
:100A50000228F6D9B8E601283FF4B7AE58682B6AE9
:100A600000F480329A427FF471AE6B6A00F4701029
:100A7000C01A18BF0120A8E60010024060004242E0
:100A800030B51B4B87B002AC03F110052246186845
:100A90005968083303C2AB421446F7D101238DF8DD
:100AA0000430022313498DF805304B6803F00C0223
:100AB000042A1BD0082A02D00F4807B030BDC3F368
:100AC000834206A80244DB0312F8102C0BD54B68B6
:100AD0000A48C3F34043504306AA134413F8143C96
:100AE000B0FBF3F0E9E706485043E6E70348E4E7E4
:100AF000542900080010024000127A000024F4007B
:100B000000093D002DE9F0410D46044610B90120D1
:100B1000BDE8F081454A136803F007038B4229D3EF
:100B200021688E0731D4CA0744D4404A136803F0C1
:100B300007039D4267D322683D4D12F0040F6ED12A
:100B4000130706D56B68226923F4605343EAC20396
:100B50006B60FFF795FF6B68364AC3F30313D35CF2
:100B6000D840354B1860354B1868FFF7F1FA002074
:100B7000BDE8F081136823F007030B43136013688B
:100B800003F007039942C2D1CAE7294B11F0040FC1
:100B90001EBF5A6842F4E0625A60080742BF5A68B2
:100BA00042F460525A605A68A06822F0F002024390
:100BB0005A60B8E762681E4E012A33681BD113F4ED
:100BC000003FA4D0736841F2883823F00303134335
:100BD0007360FFF7FFFA07467368626803F00C035F
:100BE000B3EB820FA1D0FFF7F5FAC01B4045F3D954
:100BF0000320BDE8F081022A02D113F0007FE0E774
:100C000013F0020FDDE7136823F007032B43136093
:100C1000136803F007039D427FF479AF8BE76B689D
:100C2000E16823F4E0630B436B6089E70020024036
:100C300000100240642900080C000020040000207D
:100C4000044B054A5B68C3F30223D35C034A106874
:100C5000D840704700100240742900080C000020A2
:100C6000044B054A5B68C3F3C223D35C034A106894
:100C7000D840704700100240742900080C00002082
:100C800003682DE9F341D907054620D5354CE369C2
:100C9000DA0032D40127E36943F08053E361E3696A
:100CA00003F080530193019B2F4E3368DB0526D55B
:100CB000236A13F4407336D1236A6A6823F44073BD
:100CC000134323621FB1E36923F08053E361286873
:100CD000830706D5234AA968536823F440430B438E
:100CE000536010F010001BD01E4AE96853680020C2
:100CF00023F480030B43536012E00027D4E73368EA
:100D000043F480733360FFF765FA80463368D80593
:100D1000CED4FFF75FFAA0EB08006428F6D90320D1
:100D200002B0BDE8F0816A6802F440729342C3D019
:100D300001200E4A236A1060002023F440711060E5
:100D40002162D907B8D5FFF745FA41F2883806463F
:100D5000236A9A07B0D4FFF73DFA801B4045F7D9C4
:100D6000DDE700BF00100240007000404004424236
:100D7000F8B504460E4615461F4621688A6836EACD
:100D8000020301D00020F8BD6B1CF7D0FFF722FA58
:100D9000C01B8542F1D823685A6822F0E0025A60ED
:100DA0006268B2F5827F0AD1A268B2F5004F02D024
:100DB000B2F5806F03D11A6822F040021A60A26A6D
:100DC000B2F5005F07D11A6822F400521A601A685F
:100DD00042F400521A60012384F8513000230320AA
:100DE00084F85030F8BD38B5134642680446B2F571
:100DF000827F16D18068B0F5004F02D0B0F5806FC9
:100E00000FD12268B0F5806F156825F04005156098
:100E100007D10A4601212046FFF7AAFF20B900208A
:100E200038BD0A468021F6E7636D032043F02003B6
:100E3000636538BD10B513460A4680210446FFF7A6
:100E400097FF20B10320636D43F02003636510BD5D
:100E500010B50446002834D00023836290F8513046
:100E600003F0FF021BB980F8502001F0B9FB022308
:100E7000226884F851301368A06823F0400313609F
:100E80006368A1690343E068034320690343606921
:100E90000343E0690343206A0343A06A034301F468
:100EA0000070090C034301F0040113605160D36921
:100EB000002023F40063D3610123606584F851307E
:100EC00010BD012010BD2DE9F3411E4690F85030B1
:100ED0000446012B0D46904600F09C80012380F8CB
:100EE0005030FFF777F9074694F85100C0B2012857
:100EF00040F08E80002D5ED0B8F1000F5BD0032350
:100F0000002084F85130A3686065A063A4F836809F
:100F1000A087E087606420642068B3F5004F08BFB5
:100F20000368256308BF43F48043A4F8348008BFF6
:100F3000036003685B065EBF036843F04003036021
:100F4000E368B3F5006F63683ED113B1B8F1010FE8
:100F500007D135F8023BC3602563E38E013B9BB2AA
:100F6000E386E38E9BB2A3B93A4631462046FFF7AB
:100F700061FF002849D1A36833B901932368DA6877
:100F800001929B680193019B606D003018BF0120A6
:100F900011E022689368980705D5236B33F8021B8C
:100FA000D1602363D9E7FFF715F9C01BB042D8D34E
:100FB000711CD6D00320012384F85130002384F81B
:100FC000503002B0BDE8F08113B1B8F1010F08D183
:100FD0002B780373236B01332363E38E013B9BB2B6
:100FE000E386E38E9BB2002BBED023689A689207FB
:100FF00003D5226B12781A73ECE7FFF7EBF8C01BEE
:101000008642EED8731CECD0D4E720236365B2E7A8
:101010000220D0E70220D4E72DE9F7431E4690F8DE
:1010200050300446012B0D4691460A9F00F0E280A5
:10103000012380F85030FFF7CDF894F85130804606
:10104000DBB2012B61680AD0B1F5827F40F0D0801D
:10105000A068002840F0CC80042B40F0C980002D0F
:1010600000F0C480B9F1000F00F0C080002E00F045
:10107000BD8094F85130C4F83890042B1CBF052370
:1010800084F8513000236365236463642368E68732
:10109000E6861A68A687500658BF1A68256358BFA7
:1010A00042F04002A68658BF1A60E268B2F5006FAF
:1010B00058D109B1012E07D135F8022BDA60E38E41
:1010C0002563013B9BB2E3860125E38E9BB2ABB95E
:1010D000E38F9BB293B9424639462046FFF7AAFEFA
:1010E000002840F08180A368002B32D12368019052
:1010F000DA6801929B680193019B2AE02268936859
:1011000099070DD5E38E9BB253B14DB10025236BEA
:1011100033F8021BD1602363E38E013B9BB2E3866D
:101120009368DB070CD5E38F9BB24BB10125D268E6
:10113000A36B23F8022BA363E38F013B9BB2E387EE
:10114000FFF748F8A0EB08008742BED87E1CBCD051
:101150000320012384F85130002384F8503003B079
:10116000BDE8F08309B1012E08D12A781A73236BE8
:1011700001332363E38E013B9BB2E3860125E38EBB
:101180009BB21BB9E38F9BB2002BA4D0226893685B
:1011900098070ED5E38E9BB25BB155B10025236B4A
:1011A0001B781373236B01332363E38E013B9BB2E4
:1011B000E38622689368D9070DD5E38F9BB253B1BC
:1011C0000125D268A36B1A70A36B0133A363E38F6D
:1011D000013B9BB2E387FEF7FDFFA0EB08008742CF
:1011E000CDD87B1CCBD0B3E7202363650120B0E7CB
:1011F0000220AEE70220B2E72DE9F3411D46436825
:101200000446B3F5827F884617460CD1836853B9EC
:10121000042380F85130134600950A46FFF7FCFE80
:1012200002B0BDE8F08194F85030012B79D0012351
:1012300084F85030FEF7CEFF064694F85100C0B255
:1012400001286CD1B8F1000F57D0002F55D00423DE
:1012500084F85130002363652363E787A386E38620
:1012600023646364A368A787B3F5004F2368C4F8B9
:10127000388002BF1A6822F480421A601A68570642
:101280005EBF1A6842F040021A60E368F3B1E38F70
:101290009BB2FBB123689A68D20735D5DA68A36B95
:1012A00023F8022BA363E38F013B9BB2E387EEE7B6
:1012B00023689A68D00718D51B7BA26B1370A36BA9
:1012C0000133A363E38F013B9BB2E387E38F9BB2C0
:1012D000002BEDD1324629462046FFF784FDD8B9D0
:1012E000606D003018BF012007E0FEF773FF801B20
:1012F0008542EBD8691CE9D00320012384F85130E2
:10130000002384F850308BE7FEF764FF801B854292
:10131000BDD86B1CBBD0EFE720236365E0E702205C
:10132000EBE702207CE70000036A70B523F00103BD
:101330000362036A446882690D6822F073022A43DB
:101340008D6823F002032B430A4DA8420BD1CD68D0
:1013500023F008032B438E694D6924F44074354310
:1013600023F004032C43446082614A6842630362B1
:1013700070BD00BF002C0140036A70B523F4807378
:101380000362036A4468C2690D6822F073022A434B
:101390008D6823F4007343EA05230B4DA8420DD159
:1013A000CD6823F4006343EA05238E694D6924F474
:1013B0004054354323F4806344EA05144460C26119
:1013C0004A68C263036270BD002C0140036A30B5F5
:1013D00023F480530362036A4468C2690D6822F4EF
:1013E000E64242EA05228D6823F4005343EA0533BE
:1013F000064DA84202BF4D6924F4804444EA851496
:101400004460C2614A680264036230BD002C01403E
:10141000022380F83D3003689A6802F00702062A2A
:101420001EBF1A6842F001021A60012380F83D30A5
:1014300000207047022341F2111280F83D3003680A
:10144000196A114208D140F24442196A114202BF9E
:101450001A6822F001021A60012380F83D30002052
:10146000704703680020DA6842F00102DA609A6887
:1014700002F00702062A1EBF1A6842F001021A6033
:1014800070470368DA6822F00102DA6041F2111253
:10149000196A114208D140F24442196A114202BF4E
:1014A0001A6822F001021A600020704770477047E6
:1014B000704770477047036810B51A690446910772
:1014C0000ED5DA6892070BD56FF002021A6101227D
:1014D0009B6902779B0777D0FFF7EAFF002323770A
:1014E00023681A69500710D5DA6851070DD56FF0D7
:1014F00004021A6102229B69227713F4407F20467E
:1015000068D0FFF7D5FF0023237723681A691207F5
:101510000FD5DA6810070CD56FF008021A610422A3
:10152000DB692277990720465AD0FFF7C1FF0023D5
:10153000237723681A69D20610D5DA68D0060DD54C
:101540006FF010021A610822DB69227713F4407FE2
:1015500020464BD0FFF7ACFF0023237723681A699E
:10156000D10708D5DA68D20705D56FF00102204609
:101570001A61FFF79BFF23681A69100608D5DA681D
:10158000110605D56FF0800220461A6100F027F998
:1015900023681A69520608D5DA68500605D56FF037
:1015A000400220461A61FFF785FF23681A699106F9
:1015B00022D5DA6892061FD56FF020022046BDE8DA
:1015C00010401A6100F00AB9FFF771FF2046FFF7DB
:1015D00070FF83E7FFF76BFF2046FFF76AFF92E794
:1015E000FFF765FF2046FFF764FFA0E7FFF75FFF07
:1015F0002046FFF75EFFAFE710BD00001A4A036800
:1016000090420AD0B0F1804F07D0A2F594329042B8
:1016100003D002F58062904215D14A6823F070032E
:101620001343114A90420AD0B0F1804F07D0A2F57F
:101630009432904203D002F58062904203D1CA688E
:1016400023F4407313434A6923F080031343036078
:101650008B68C3620B688362034B984204BF0B69BB
:101660000363012343617047002C014010B5044619
:10167000A0B190F83D3003F0FF021BB980F83C2088
:1016800000F0E8FF0223206884F83D30211DFFF7B9
:10169000B5FF0123002084F83D3010BD012010BDAE
:1016A000036A70B523F010030362036A4468826919
:1016B0000D6822F4E64242EA05228D6823F02003F9
:1016C00043EA05130B4DA8420DD1CD6823F08003EA
:1016D00043EA05138E694D6924F44064354323F0D1
:1016E000400344EA8504446082614A68826303627D
:1016F00070BD00BF002C014038B590F83C30044666
:10170000012B4FF0020018D0012384F83D0084F82B
:101710003C301D460C2A0BD8DFE802F0070A0A0A03
:10172000100A0A0A140A0A0A18002068FFF7FCFDCA
:10173000002084F83D5084F83C0038BD2068FFF755
:10174000AFFFF5E72068FFF717FEF1E72068FFF726
:101750003DFEEDE790F83C3030B5012B4FF0020331
:1017600014D0046880F83D306268A3680D68496849
:1017700022F0700223F080030B432A436260A360CF
:10178000012380F83D30002380F83C30184630BDFE
:1017900090F83C30012B1FD0CB688A6823F440734B
:1017A00013434A6823F4806313430A6823F40063F5
:1017B00013430A6923F4805313434A6923F4005303
:1017C0001343CA6923F4804313430268536400231C
:1017D00080F83C30184670470220704770477047C9
:1017E00038B505460368C1681A69192422F44052C5
:1017F0000A431A6182680069D9680243686921F462
:10180000B05121F00C0102430A43DA605A69A96918
:1018100022F440720A435A610D4A934214D1FFF7F1
:101820001FFA60436C686422A400B0FBF4F0B0FBC4
:10183000F2F402FB14031B013233B3FBF2F3296809
:1018400003EB04138B6038BDFFF7FAF9E9E700BF3B
:101850000038014010B5044640B390F8393003F029
:10186000FF021BB980F8382000F03EFF24232268D5
:1018700084F83930D368204623F40053D360FFF74F
:10188000AFFF236800201A6922F490421A615A6956
:1018900022F02A025A61DA6842F40052DA60202308
:1018A000E06384F8393084F83A3010BD012010BD6F
:1018B000282210B594B00DEB0200002101F036F89B
:1018C000142200210DEB020001F030F8102200215B
:1018D00001A801F02BF84FF48033022401220B936E
:1018E0004FF4003112934FF4E0130AA80A920C91BE
:1018F0000E9213931194FEF725FF0F234FF480628D
:1019000005930023214605A807930892099306949E
:10191000FFF7F8F84FF4004301A801940393FFF791
:10192000AFF914B010BD00002DE9F04796B0FEF7F6
:1019300033FCFFF7BDFF102200210EA800F0F6FFD8
:10194000B04B00249A690125022642F010024FF4A0
:1019500060479A619A694FF4604102F01002019267
:10196000019A9A69A84842F020029A619A69DFF8C0
:10197000D48202F020020292029A9A6942F20F7A0D
:1019800042F004029A619A6942F2107902F004026C
:101990000392039A9A6942F008029A619B690022B5
:1019A00003F008030493049BFEF7A4FE00226421C5
:1019B0009648FEF79FFE0EA9934811960E970F9535
:1019C0001094FEF7AFFD924B0EA992480E960F931E
:1019D0001094FEF7A7FD64230EA98C480E93119670
:1019E0000F951094FEF79EFD4FF440730EA98948A1
:1019F0000E930F941095FEF795FD4FF400430EA93A
:101A000084480E93CDF83C801095FEF78BFD98230B
:101A10000EA97E480E93CDF83C801095FEF782FD0E
:101A2000224629460920FEF725FD0920FEF756FD2E
:101A3000224629460A20FEF71DFD0A20FEF74EFD2C
:101A4000224629461720FEF715FD1720FEF746FD12
:101A5000314622462820FEF70DFD2820FEF73EFDE8
:101A60004FF482736C486D4A6D4E80E80C004FF461
:101A7000007383611823C3610A238460C362C46056
:101A800004614461046244628462FFF7E1F9654BDA
:101A9000304633604FF46023B460F36134733475BF
:101AA000746035610E940F941094FEF751FC092375
:101AB0000EA930460E930F951094FEF7A3FB4FF43A
:101AC000E13359485949846080E80A000C23C46016
:101AD000436104618461C461FFF7BCFE1C2241F6CE
:101AE0001F4821460DEB02000594069400F01EFFEE
:101AF000202221460EA800F019FF4D4E4D4B3046D6
:101B000086E808014EF65F23B460F36034617461C7
:101B1000B461FFF7ABFD05A9304605940694FFF7C5
:101B200019FE224607A930460794089409940A949E
:101B30000B940C940D94FFF7DFFD4FF400530EA9A6
:101B4000304613930E940F9410941194129415949C
:101B5000FFF71EFE1C2221460EA80794089400F0F1
:101B6000E5FE4FF08043344E304686E80801B4600D
:101B7000C6F80CA03461B461FFF778FD07A93046C0
:101B800007940894FFF7E6FD22460EA930460E940E
:101B90002A4ECDF83C9010941294FFF7ADFD1C2214
:101BA00021460EA80794089400F0C0FE244B30464E
:101BB00086E80801B460C6F80CA03461B461FFF790
:101BC00055FD07A9304607940894FFF7C3FD224648
:101BD0000EA930460E94CDF83C9010941294FFF765
:101BE0008BFD00F0E1F900F040FB00F03FFC2846DF
:101BF00000F0FEFB00F0DAFB00F0BEFB132000F06B
:101C000030FB21E00010024000100140000C0140B8
:101C100000001110000801400401002000300140C4
:101C200088000020002801409C0100200044004062
:101C3000C4000020002C01405C010020480000206E
:101C400000080040000031101CA1D1E9000100F0A3
:101C50005BFB032000F0D2FB00F03AF93946124852
:101C60002246FEF747FD08211048FEF73DFD18B952
:101C70000F4B1D6000F080F80E48FFF7C9FB0D48C0
:101C8000FFF7EFFB00F0D8F80B4D094C4FF4004183
:101C90002846FEF729FD0028F8D10123236000F033
:101CA0006BF8F3E7AFF3008000100140000C014037
:101CB0002C0000205C01002000080140E2F0F0E868
:101CC000E800000010B504462948FFF7DAFB082CAD
:101CD0001DD121462748FEF707FD30B944F24442A2
:101CE000032143F2333000F009F908212148FEF7BF
:101CF000FBFC012806D145F25552032143F2333053
:101D000000F0FCF8BDE810401948FFF7AABB802C92
:101D100015D121461748FEF7E7FC30B944F244429A
:101D2000012143F2333000F0E9F880211148FEF739
:101D3000DBFC01280146E5D145F25552DEE7102CC7
:101D4000E0D121460B48FEF7CFFC30B944F24442C3
:101D5000022143F2333000F0D1F810210548FEF79C
:101D6000C3FC0128CED145F255520221C6E700BF7F
:101D70005C010020000C01402DE9F8434FF40041C4
:101D800001222548FEF7B6FC002341F21112234F31
:101D900023483B60234B244C1A80FFF762FB234807
:101DA000FFF748FB2148FFF76CFBDFF86C90204EF3
:101DB000DFF870803568012D12D01C48FFF728FB32
:101DC0001A48FFF74EFB1648FFF75BFB0123002282
:101DD0003B604FF40041BDE8F8430F48FEF78ABC72
:101DE0001421404600F06EFA00F0FAFA0028E1D023
:101DF0000621204600F07FFA2378AA2BDAD10023AF
:101E00002A464FF4004148463360FEF773FC62688F
:101E1000084B1A60CBE700BF00100140080000200B
:101E200048000020DC010020B80000205C010020F8
:101E30002C000020000200202DE9F04100241F4D5D
:101E40004FF400511E482C606C60AC60FEF757FCEC
:101E500044F2444304271B4EDFF86C803380142186
:101E6000304600F02FFA00F0BBFAA8B10621164860
:101E700000F041FA98F80030CC2B0DD1D8F804309E
:101E80002A68934208D06A68934205D0AA689342B0
:101E90001CBF45F824300134013FE0D10B4B072033
:101EA0001C60FEF71BFB0920FEF718FB1720FEF74E
:101EB00015FBBDE8F0412820FEF710BB040200200E
:101EC00000100140DC010020B8000020300000209C
:101ED000084B84B01A6801925A6802929A68039279
:101EE0001968054A5160596891609B68D36004B0D5
:101EF000704700BFE8F7FF1FDC0100202DE9F84F15
:101F00000023234E234F3080318272824FF4804170
:101F1000012221483B60FEF7EDFB204B1A680AB90D
:101F200001221A604FF0000B5D461C68DFF87490C8
:101F3000DFF86C805CB91A4B22461C7001234FF409
:101F400080413B601448BDE8F84FFEF7D3BB59F819
:101F50002430DFF83CA0B3610DB1013CEAE7142165
:101F6000504600F0AFF900F03BFA48B10621404678
:101F700000F0C1F998F80050A5F1AA035D425D4157
:101F80000BF1010BBBF1030F08BF0125E4E700BF14
:101F9000DC0100200800002000100140300000207B
:101FA000B800002004020020054A136843F0807343
:101FB0001360044A136843F001031360704700BFC5
:101FC000FCED00E0001000E0064B074A1B68B3FB85
:101FD000F2F300225843054B5A605A689042FCD8ED
:101FE000704700BF0C00002040420F00001000E0CE
:101FF00008B5024640210448FEF77CFBBDE80840D6
:102000000520FFF7E1BF00BF000C01400246202180
:102010000148FEF76FBB00BF000C01407FB500F028
:102020001F008DF80E0000204FF47A7604AC0D4DA1
:1020300004F8010DFFF7DCFF22460DF10E010096BA
:1020400001232846FEF7E8FF01232246FF210096E0
:102050002846FEF7E1FF0120FFF7CAFF9DF80F00B9
:1020600004B070BD040100200023F0B564250E46C5
:10207000174600F01F0085B00F4C40F020008DF88F
:102080000F0018468DF80E30FFF7B2FF0DF10E026B
:102090000DF10F01009501232046FEF7BDFF2B46F1
:1020A0003A4631462046FEF70EFF0120FFF7A0FF1B
:1020B0009DF80E0005B0F0BD04010020002310B50E
:1020C00000F01F0086B040F020008DF81700184681
:1020D0008DF80F108DF81630FFF78AFF64230C4C33
:1020E00000930DF116020DF1170101232046FEF7B2
:1020F00093FF4FF47A7301220DF10F012046FEF792
:10210000E2FE0120FFF774FF9DF8160006B010BD37
:1021100004010020F0B5002485B01C4B8DF80E2082
:102120001B4A1B7812788B421D4607468DF80D40DE
:1021300028BF0D460AB95C1BE4B264260020FFF7F5
:1021400057FF009601230DF10D020DF10E0111480C
:10215000FEF762FF33462A4639460E48FEF7B3FEC5
:1021600000250C4E34B90120FFF742FF9DF80D0009
:1021700005B0F0BD642301220DF10F013046013C92
:102180008DF80F50E4B2FEF79EFEEBE7350000201D
:102190001002002004010020F7B51B4B07461C78F5
:1021A0001A4B8C421B78264628BF0E46EBB9A41B5F
:1021B000E4B2612302AD05F8023D0020FFF718FFED
:1021C0002946642301221248FEF77DFE324664232D
:1021D00039460F48FFF710F800250D4E3CB9012095
:1021E000FFF706FF204603B0F0BD0024E1E76423BB
:1021F00001220DF107013046013C8DF80750E4B291
:10220000FEF7FAFFEAE700BF3500002010020020C9
:102210000401002010B586B08DF80F00002006AC38
:1022200004F8010DFFF7E4FE4FF47A7322460093A1
:102230000DF10F0101230548FEF7EEFE0120FFF727
:10224000D7FE9DF8170006B010BD00BF04010020A6
:10225000E220FFF7DFBFE120FFF7DCBFFF20FFF741
:10226000D9BF01460520FFF729BF08B50320FFF7B6
:10227000D5FE0138C0B202288CBF0020012008BD65
:1022800008B50020FFF7CAFE014610F0020009D190
:1022900041F00201C9B2FFF711FFBDE80840052077
:1022A000FDF79EBF08BD10B51C46002A14BFB02222
:1022B000A022FFF72FFF24B1BDE810400120FFF757
:1022C000A5BE10BD08B501231A46FFF7ECFFFFF7C6
:1022D000C5FF10F0300FFAD00020FFF797FE7021F5
:1022E0000720FFF7EBFEC30603D5FFF7B4FF00207E
:1022F00008BD012008BD08B5FFF74EFFBDE8084046
:1023000070210720FFF7DABE37B502AC64E902019D
:10231000084D21462A780A20FFF7A6FE2A78214692
:102320001020FFF7A1FE044B11201978FFF7C6FE1D
:1023300003B030BD3400002035000020502337B5F5
:102340000C4D02AC04F8013D0020FFF751FE214680
:102350004FF47A7301222846FEF7B5FD4FF47A73E5
:10236000012273212846FEF7AEFD0120FFF740FE53
:1023700003B030BD0401002008B51D20FFF74EFE5C
:1023800040F00401C9B21D20FFF798FE1C20FFF7A2
:1023900045FE40F03F01C9B21C20FFF78FFE01222D
:1023A000014B1A7008BD00BF1002002008B51D20A7
:1023B000FFF734FE40F00601C9B21D20FFF77EFE94
:1023C0001C20FFF72BFE40F00301C9B21C20FFF7D1
:1023D00075FE0122014B1A7008BD00BF10020020DB
:1023E00008B51720FFF71AFEC04300F0010008BD32
:1023F000014600B13F210120FFF760BE10B5044641
:102400000620FFF70BFE032C8EBF07246400013467
:1024100000F0F80198BF04F0FF0421430620BDE856
:102420001040FFF74BBE000038B505460620FFF709
:10243000F5FD022D00F0D7040B4B0ED19B2244F08A
:102440002004214606201A70FFF738FE0620FFF709
:10245000E5FD231A5842584138BD012D12BF5522BF
:1024600044F008044122ECE73B0000202022F8B5AC
:1024700005270024294B2A4E1A702A4B2A4D1F701B
:102480002A4B20461C7034702C70FFF7BFFD0120D2
:10249000FFF7AEFD3846FDF7A3FE0C212046FFF7FF
:1024A0000DFE5F210420FFF709FE0320FFF7A6FFC2
:1024B0000220FFF7B9FF08B1012333700620FFF7B0
:1024C000ADFD002604460020FFF7AEFFFFF736FF04
:1024D00000211D20FFF7F2FD00211C20FFF7EEFD7B
:1024E000702107202E70FFF7E9FD4C20FFF7B9FEA1
:1024F000FFF7AEFEFFF7AFFEFFF7C2FE3046FFF775
:102500008DFD00F0FE013046FFF7D8FD601EC0B221
:10251000FD288CBF00200120F8BD00BF3500002041
:10252000110200203400002010020020360000209C
:10253000124B07B59A69072142F001029A619A6924
:10254000012002F001020092009ADA6942F0805202
:10255000DA61DB69002203F080530193019BFDF7F0
:1025600089FF0120FDF7BAFF054A536823F0E063B5
:1025700043F00073536003B05DF804FB00100240A9
:102580000000014010B5044686B01022002102A8C8
:1025900000F0CCF92268104B9A421AD103F5684337
:1025A0009A6902A942F480629A619A690B4802F41E
:1025B00080620092009A9A6942F008029A619B69CF
:1025C00003F008030193019B032302930393FDF798
:1025D000A9FF06B010BD00BF00280140000C01405B
:1025E00010B5044686B01022002102A800F09EF922
:1025F0002268164B9A4226D103F560439A6902A9D4
:1026000042F480529A619A69114802F48052009211
:10261000009A9A6942F004029A619B6903F00403EC
:102620000193019BA02302930223039303230593A9
:10263000FDF778FF40230293002302A90448039387
:102640000493FDF76FFF06B010BD00BF00300140DE
:10265000000801401FB50368204A934214D1204B63
:102660001B209A69052142F400629A619B6900224D
:1026700003F400630193019BFDF7FCFE1B20FDF7B3
:102680002DFF05B05DF804FBB3F1804F11D103F5C8
:102690000433DA691C2042F00102DA61DB690022AE
:1026A00003F0010302930721029BFDF7E3FE1C20C8
:1026B000E5E70C4A9342E4D1094B1E20DA69062172
:1026C00042F00402DA61DB69002203F004030393A1
:1026D000039BFDF7CFFE1E20D1E700BF002C014079
:1026E000001002400008004010B5044686B01022D9
:1026F000002102A800F01AF92268164B9A4226D14E
:1027000003F5E633DA6902A942F40032DA61DA69E4
:10271000114802F400320092009A9A6942F00402D1
:102720009A619B6903F004030193019B04230293C4
:102730000223039303230593FDF7F4FE082302937A
:10274000002302A9044803930493FDF7EBFE06B0AF
:1027500010BD00BF00440040000801407047FEE784
:10276000FEE7FEE7FEE7704770477047FDF726BDBE
:10277000FDF7DABF08B50448FEF783FEBDE8084060
:102780000820FDF7C3BF00BF5C01002008B5044866
:10279000FEF777FEBDE808401020FDF7B7BF00BF89
:1027A0005C01002008B50448FEF76BFEBDE8084058
:1027B0008020FDF7ABBF00BF5C0100200148FEF7A1
:1027C0007ABE00BFC400002010B50D4C2368013351
:1027D0003C2B236007D10B4B1B68012B03D100233B
:1027E0002360FFF729FB2368052B03D1054B1B68EA
:1027F00003B923600448BDE81040FEF75CBE00BF8B
:1028000040000020080000205C010020064A074824
:1028100013680133142B136001BF002304491360B4
:102820000B60FEF748BE00BF3C00002048000020BF
:102830002C00002008B50448FEF723FEBDE8084040
:102840004FF40040FDF762BF5C0100200F4B1A6897
:1028500042F001021A6059680D4A0A405A601A682B
:1028600022F0847222F480321A601A6822F48022E4
:102870001A605A6822F4FE025A604FF41F029A60EE
:102880004FF00062034B9A60704700BF0010024097
:102890000000FFF800ED00E0002103E00B4B5B5867
:1028A000435004310A480B4B42189A42F6D30A4A65
:1028B00002E0002342F8043B084B9A42F9D3FFF7A9
:1028C000C5FF00F00FF8FFF72FF8704784290008C4
:1028D0000000002010000020100000201402002042
:1028E000FEE7000070B500250C4E0D4CA41BA41093
:1028F000A54209D100F022F800250A4E0A4CA41B7B
:10290000A410A54205D170BD56F825309847013571
:10291000EEE756F8253098470135F2E77C290008A4
:102920007C2900087C29000880290008034602440D
:10293000934200D1704703F8011BF9E7F8B500BFD7
:10294000F8BC08BC9E467047F8B500BFF8BC08BC90
:042950009E467047E8
:1029540002030405060708090A0B0C0D0E0F1010DC
:10296400000000000000000001020304060708093B
:08297400000000000102030451
:04297C003501000819
:042980001101000839
:102984000100000010000000010000000024F40019
:04000005080028992E
:00000001FF
